:020000041008E2
:4000000000780408EB0208100D0000005103081051030810510308105103081000000000000000000000000000000000816508104D03081000000000216608108566081072
:400040004D0308104D0308104D0308104D0308104D0308104D0308104D0308104D0308104D0308104D0308104D0308104D0308104D0308104D0308104D0308104D03081000
:400080004D0308104D0308104D0308104D0308104D0308104D0308104D0308104D0308104D0308104D0308104D0308104D0308104D0308104D0308104D0308104D030810C0
:4000C0004D0308104D0308104D0308104D0308104D0308104D0308104D0308104D0308104D0308104D0308104D0308104D0308104D0308104D0308104D0308104D03081080
:400100004D0308104D0308104D0308104D0308104D0308104D0308104D0308104D0308104D0308104D0308104D0308104D0308104D0308104D0308104D0308104D0308103F
:400140004D0308104D0308104D0308104D0308104D0308104D0308104D0308104D0308104D0308104D0308104D0308104D0308104D0308104D0308104D0308104D030810FF
:400180004D0308104D0308104D0308104D0308104D0308104D0308104D0308104D0308104D0308104D0308104D0308104D0308104D0308104D0308104D0308104D030810BF
:4001C0004D0308104D0308104D0308104D0308104D0308104D0308104D0308104D0308104D0308104D0308104D0308104D0308104D0308104D0308104D0308104D0308107F
:400200004D0308104D0308104D0308104D0308104D0308104D0308104D0308104D0308104D0308104D0308104D0308104D0308104D0308104D0308104D0308104D0308103E
:400240004D0308104D0308104D0308104D0308104D0308104D0308104D0308104D0308104D0308104D0308104D0308104D0308104D0308104D0308104D0308104D030810FE
:400280004D0308104D0308104D03081010B5054C237833B9044B13B10448AFF300800123237010BD9C750208000000008CAE0810084B10B51BB108490848AFF30080084800
:4002C000036803B910BD074B002BFBD0BDE81040184700BF00000000A07502088CAE08105C460208000000007047FFF7FDFF72B6104C114DAC4209DA21686268A368043B99
:40030000A2BFC858D050FAE70C34F3E70B490C4A00209142BCBF41F8040BFAE709480A490860BFF34F8F00F049FB00F023FB00F0D5F9FEE7449009105C9009109C75020852
:40034000144303080040020808ED00E0FEE7FEE700B504207146084202D0EFF3098001E0EFF30880043003F0EDFBFEE700B583B04FF0FF326946094B186805F06DF801287E
:40038000F6D1019A22B10099054807F005FCEFE70099044807F000FCEAE700BFD4410308389C0810F49E081000B585B0254B019300220292134601A92348006804F0B4FE16
:4003C0004FF0FF3203A9214B186805F045F801282CD19DF80C30C3B11D4A1268042A08DC1BB102211B4B59600BE00221194B996007E01BB10221184B596002E00221164B94
:4004000099600132124B1A60DAE71BB10221114A516002E002210F4A91601BB102220E4B5A60CDE702220C4B9A60C9E70B4B0193029000231A4601A90348006804F074FE10
:40044000BEE700BF449C0810D4410308DC410308B87502088000324080053240949C0810F0B585B03F4B0193002402942346224601A93D48006804F057FE8DF80C408DF8B7
:400480000D40FF238DF80E3000F0FEFA18B90122364B1A7109E0364A0192029000231A4601A93148006804F03FFEFF2600273D4600F004FB002000F081FD003018BF0120E1
:4004C0008DF80C00012000F079FD003018BF01208DF80D00022000F085FD8DF80E0001F039F89DF80C40A54203D19DF80D309F4215D09DF80D7000231A4603A91D4800689F
:4005000004F012FE01280BD01B4B0193029000231A4601A91448006804F006FE00E02C469DF80E50AE4215D000231A4603A91148006804F0F9FD01280BD0104B01930290C5
:4005400000231A4601A90848006804F0EDFD2E4600E02E464FF0FF31012005F03FFD2546A6E700BFB89C0810D4410308B8750208F89C0810DC410308289D0810589D0810F7
:4005800008B544F20803984212D045F2010398420AD0B0F5805F12D1094807F06FFB0021084603F0F5FD08BD064807F067FB08BD054807F063FB0021084603F0E9FD08BD45
:4005C000889D0810989D0810A49D0810174B98422BD100B585B00DF10F020121002004F00DFC9DF80F30012B15D013B1022B16D018E00F4B019300220292134601A90D48F8
:40060000006804F091FD0C4A1368013B1360012005F07AFB06E0094807F030FB02E0084807F02CFB05B05DF804FB7047BF000100B49D0810D4410308B8750208D09D081057
:40064000E09D081000B583B002A9002341F8043D084B186804F0A2FE019B3BB14FF08052054B1A60BFF34F8FBFF36F8F03B05DF804FB00BFD841030804ED00E008B51148DA
:4006800007F0FCFA00214FF0FF3004F02DFD0E4B18600E4806F040F901E00AF02DFD0C4B1B78022BF9D10B4803F0B0FC0A4804F097FB4FF0FF31044B186804F079FF0AF0F6
:4006C0001BFDF6E7EC9D0810D8410308810508109C42030845060810CD05081000B583B062B606F001F900220421012004F0D6FC214B1860002401940125009523468022EB
:400700001E491F4805F08AF91E4B019305230093234680221C491D4805F080F901940223009323464FF4005219491A4805F076F922460821102004F0B1FC174B1860019434
:400740000095234680221549154805F067F9154807F094FA144807F091FA144807F08EFA05F08EF9124807F089FA40F20321114803F0D8F9FEE700BFDC410308009E0810E9
:40078000A9030810D04103080C9E081061040810189E08107D060810D4410308209E08106D0308102C9E08105C9E0810CC9D08109C9E0810C49E081008B5044807F0ECF90D
:4007C00040F23921024803F0ADF908BDD09E0810C49E081008B5012002F05EFF08BD00BF704700BF5C4AD2F8803303F00F0303F1D00152F8212002F00702032A04D0042AFC
:4008000005D092B9554914E0554A116811E003F1C002514951F8222002F01F02112A06D0132A04D04FF4FA4103E04E4901E04FF400418BBB484BD3F8902502F00100D3F879
:400840008825C2F30172D3F8883513F0405F07D0414BD3F88835C3F30173012B02D102E0012300E0002303B108B9032A46D13A48D0F88025C2F31103D0F88425C2F30C02B7
:40088000D0F88005C0F300600130B1FBF2F202FB03F2B2FBF0F131E0012B2FD12E4BD3F8402602F00100D3F80026C2F30172D3F8003613F0405F07D0274BD3F80036C3F301
:4008C0000173012B02D102E0012300E0002303B108B9032A12D12048D0F8002602F07F02D0F80036C3F30423D0F80006C0F3044002FB01F2B2FBF3F2B2FBF0F1164BD3F852
:400900008033C3F3011321FA03F215494A601648D0F89030C3F3072301330069000E0130B2FBF0F08860B2FBF3F3CB600B6103F5742202F23F220D48A0FB0202C2F387428C
:400940000A7503F2E7330A4AA2FB03239B098B61DB03CB61704700BF0000264000127A008C42020800366E010000214083DE1B43D34D621008B50D4803F0FCF9FFF730FF82
:40098000FFF730FF00221146042002F037FC084802F0CAFC074B1B6893F8513013B1064802F032FD02F0B4FF08BD00BFD8A30810C0750208944203082C9F081008B503F0C5
:4009C0001CF9074AD2F8883043F47003C2F88830BFF34F8FBFF36F8F03F013F908BD00BF00ED00E0704700BF00B583B000F040FDA0B90C4B1B788BB102A9002341F8043D11
:400A0000094B186805F02AFB019B3BB14FF08052064B1A60BFF34F8FBFF36F8F03B05DF804FB00BFBC750208D041030804ED00E010B504462146034802F092FE0028F9D002
:400A400010BD00BF00006640054BD3F80833C3F30803002BF8D0024BD3F84003704700BF0000664008B5074B1B7833B900F068FA00F0D4FA0122034B1A7000F059F800F0F9
:400A8000DBFF08BD4077020810B5FFF7EBFF044610B900F0CFFE044614B900F047FE044614B900F057FD044600F0E2FC0028FBD100F096FB00F004FB204610BD70B5194D80
:400AC0000026344629E063090433174A52F8233004F01F02D34013F0010F1CD0EB7E012B02D0022B09D011E0284600F0B3F806462946204600F0EAF90DE0284600F086F861
:400B000006462946204600F019F904E04FF4B871064803F007F830350134022CD3D9304670BD00BFDC9F0810E8410308789F0810F8B500230AE0204A191D02EB810000244A
:400B400044604FF0FF3042F821000133002BF2D01A4C03232CE06668A27E174B2B4400211976012A03D00AB3032A07D91EE02069E0B1228BF17906F095FB17E023690BB124
:400B8000F2791A70676800260EE006F1080307EB43034FF6FF725A80A06A20B1114600EB460002F01BFA0136002EEED030342B465D1E002BCFD1F8BDE8410308DC9F08106F
:400BC00010B582B004460846638802A921F8083D1346228A05F014FFBDF8003063809DF8023023719DF8033063719DF80430A37102B010BD30B40B884A889C1A0025CD80D9
:400C00000079844200DDCC8030BC70472DE9F843C5688468038B4768867E4FF0000911E032462146284600F033FB32462146384600F044FB814621463846FFF7DBFF0A3414
:400C40000A35434603F1FF38002BE9D14846BDE8F88300BF2DE9F04F83B08146837E062B02D14FF0010B01E04FF0000BD9F80C80D9F80840D9F804709A46D9F82460002550
:400C8000019520E052462146404600F001FB3246398A208805F0DCFE2A4631463846FFF78FFF0C3652462146384600F007FB019021463846FFF79EFF0A34BBF1000F01D10D
:400CC00008F10A080135B9F818309D42DAD3019803B0BDE8F08F00BFF0B50C8B8D684F680A69012324E010EA030403D17E88B979314402E07988BE79891BEE88B14201D3FF
:400D0000002100E01946A14202D01678013E1670A14201D014783CB920EA0300084309B9F97900E0012111705B000A350132744604F1FF3E002CD6D1F0BD00BF38B50446D8
:400D40008A7E154B03441D7E012A04D12846FFF7C3FF054604E04FF43871104802F0E2FE0D4B23441D76620904F01F04012303FA04F445B90432084B03EB8202536823EA10
:400D80000404546038BD0432034B03EB820253681C43546038BD00BFE8410308A49F08102DE9F04F83B088460B8B8A684F68D1F810E08E6A844618B97C88B9790C4402E032
:400DC0007988BC790C1B0025012109E0D3889C4201D3002300E00B461D430A3249000346581E002BF2D155B19EF8003013B1013B8EF800309EF8003023B1654602E0FB7956
:400E00008EF80030002D4AD07A88BB79B8F81890D21A4946D8F8080002F032F8044600284DD098F81A30022B49D100234A46D8F8201001A802F090F80446D8F814A0D8F894
:400E400028904FF0000827E001AB33F818B008F1080307EB43035A884FF6FF739A4204D15946484602F0BAF809E01AF0400F06D0B9F800305B44A9F800B0C3F34E0B08F185
:400E8000080307EB4303A3F802B0B9F1000F01D009F1020908F101084445D5D80FE000240DE004F1080307EB43034FF6FF725A8026B1114606EB440002F090F80134002CD5
:400EC000EFD0284603B0BDE8F08F00BF38B504468A7E194B03441D7E012A03D062B1032A05D909E02846FFF7F7FE054609E02846FFF756FF054604E040F226410F4802F04E
:400F000011FE0D4B23441D76620904F01F04012303FA04F445B90432074B03EB8202536823EA0404546038BD0432034B03EB820253681C43546038BDE8410308A49F0810FC
:400F400070B51C4CA4220021204606F0ABF942F2FA2323804FF41063638041F27073A3800623A3830823A3770423E377124E203406F198050FCD0FC40FCD0FC40FCD0FC4CD
:400F800095E8030084E80300304606F1080403230CE0A268238B04E010F8013B53720A320B46591E002BF7D130342B465D1E002BEFD170BDE8410308D49F081002280DD8E5
:400FC00000F01F02012303FA02F24009031D044800EB83035B6802EA0300704700207047E8410308022811D800EB400213010A4A134493F82230023BDBB2012B09D800EB93
:40100000400003011344DB68588A70474FF6FF7070474FF6FF707047D49F08100023024AD380024A13607047E8410308DC770208C9B2062902D083180021197130F8121003
:4010400000EB42035980024400231372704700BF70B506460D46012305E0224629463046FFF7E6FF23465C1E002BF6D170BD00BF70B5084D43001A18140122462C44A66863
:4010800001EB81014C002A44917E3019FFF7E0FF70BD00BFDC9F081038B5054600EB40021301064A13441B8B04E021462846FFF7DFFF23465C1E002BF7D138BDDC9F0810AB
:4010C00010B5032303E02046FFF7E6FF23465C1E002BF8D110BD00BF70B401230DE0D3B2062B09D031F81460A30023445D004319465331F814505D8023465C1E002BEED18A
:4011000070BC704770B4012410E0D4B2062C0CD031F813609D001D446C000444A68031F81350E58031F8135025811C46631E002CEBD170BC704700BF2DE9F04F83B0054628
:401140004200024413011F4A13445A6801921B8B32E06A002A4413011A4A1344D3F808B004EB84024FEA42080BEB080AD86881465E6A04EB44018A0016449F7E062F01D0D2
:4011800000EB08093A4651464846FFF7A5FF3A4651464846FFF7B6FF05EB45021301094A1344DB7E012B06D13246019B198A3BF8080005F041FC23465C1E002BC9D103B0D4
:4011C000BDE8F08FDC9F081010B5032303E02046FFF7B2FF23465C1E002BF8D110BD00BF08B5FFF7F1FF08BDF0B4012319E0D3B2062B15D031F81460A70027447B000344C5
:401200009D883544DF88EE191D8935441F819E88DE8031F814609E80C5F38F0321F8143023465C1E002BE2D1F0BC7047884202D9034608461946914200D91146884238BF7A
:40124000084670472DE9F04707460E469046012319E05FFA88F3062B14D0A30023445D0007EB050937F805A0B9F80220514636F81400FFF7DBFFA9F802A036F814307B5365
:4012800026F8140023465C1E002BE2D1BDE8F08770B504460D461646FFF7D4FF324629462046FFF7A1FF70BD00FA03F3C2F5807001FB00F102FB0310000A70472DE9F0418C
:4012C00007460D461646012338E035F8140005EB44035988884207D3421A2B194FF0000E83F808E0012301E00A1A00238BB97B799A420ED92B191B7A3A7A934205D3224680
:4013000031462846FFF794FE17E02A190133137213E0F3B2062B10D005EB040898F804E0082301224EEA0121FFF7BEFFC0F30F2205EB44035A8088F8040023465C1E002B52
:40134000C3D10020BDE8F08130B49F280ED940F2FE3399420AD9244CA1FB04454B1B05EB53035B0AC3EB832399422FD09F280DD9B1F5FF7F0AD91D4CA1FB04454B1B05EB04
:4013800053031B0AC3EB4323994221D09F280CD97E290AD9164CA1FB04454B1B05EB53039B09C3EBC313994214D09F2814D93E2914D9104CA1FB04454B1B05EB53035B0969
:4013C000C3EB831399420BD000200AE0042008E0032006E0022004E0002002E0002000E0012030BC704700BF051040002140800011080402054110044A1E032A01D81023F9
:4014000000E0002379B183B1642202FB03F3B3FBF0F3002001E001305B00092BFBD90A2B04D9013802E0002000E00020C0B2704708B501F0C1FC08BD08B50A4B1A68916978
:40144000094B5B1ADB09526902EB03135A6822F0F8525A60054A136823F00103136000F04BFF08BD9442030880033240A8023640024BD86800F08000704700BFE841030839
:40148000034B0340034AD0681843D060704700BF80000100E8410308034B0340034AD06820EA0300D060704780000100E841030810B5174BDB6813F4803F0ED102280ED882
:4014C00043090433124A52F8233000F01F02D34013F0010F05D1012404E0112402E0012400E000248CB900EB40021301094A1344DB7E022B02D101F071FC06E0012B02D14E
:4015000000F00CFF01E04FF0FF34204610BD00BFE8410308DC9F081008B50C4BDB6813F4803F0DD10A4B1B78012B05D0022B09D101F020FB002008BD00F03CFE002008BDB9
:40154000112008BD4FF0FF3008BD00BFE8410308E0770208124BDB6813F0800F1AD110B500244FF0FF3312E02046FFF7A1FF034660B9012C03D801220A4B5A7002E00022D9
:40158000084B5A70FFF7C8FF034606E00134022CEAD902E0112318467047184610BD00BFE8410308E0770208124B1B78834220D010B50446012B02D1FFF73EFF03E0022B5C
:4015C00001D1FFF735FF012C05D100F06BFC0122084B1A7010BD022C05D101F017F90222044B1A7010BD032C02D00022014B1A7010BD7047E077020830B583B00025074C8B
:4016000008E02179002300930E22206802F088F908340135082DF4D903B030BDA4A0081038B51B4A93780133DBB293709078FFF73FFF044650B9164B9B78DBB2022B02D126
:401640000022134B5A70FFF767FF1EE0104B9B78DBB2022B10D10F4D2B8901332B818020FFF71AFFEB6823F07F43EB60EB6843EA0464EC60002408E0064BDA6822F07F4205
:40168000DA60DA6842EA0062DA60002CC9D138BDE0770208E841030810B50146124BB3F90030002B0DDB5A0903F01F03012404FA03F320320D4840F82230BFF34F8FBFF33A
:4016C0006F8F094C204601F0B1FCB4F90030002B08DB590903F01F03012202FA03F3034A42F8213010BD00BF609F081000E100E070B5022801D8002500E0012595B90446F5
:4017000000EB40021301084A1344DE7E022E02D1282101F02BF9012E04D15521204600F0D1FE0546284670BDDC9F081038B50024254604E02046FFF7DBFF05430134022CA9
:40174000F8D9284638BD00BF70B500241CE004EB440213010E4A1344DB7E012B13D104EB440213010A4AD658002504E006EBC50000F06CFD013504EB44021301044A1344C9
:401780001B7E9D42F2D30134022CE0D970BD00BFDC9F081000EB40000301024A13445B6858897047DC9F081000EB40000301024A13445B6859817047DC9F0810C0EB0032FB
:4017C000012303FA01F101398A4205D9C0EB0020814203D30520704706207047002070472DE9F04180460E46FFF7D4FF07460022318800F021FC01463846FFF7A5FD0546F7
:4018000020B931887800FFF7D9FF054629463846FFF7F2FD04466B1FDBB2012B03D839464046FFF7C1FF2001C0B228433073BDE8F08100BFF0B58BB04FF47A73ADF8003035
:4018400040F2C343ADF802304FF49673ADF80430584B9A7F4BF68033B3FBF2F3ADF80C3000F020FB0024264655E004EB44021301514A1344DB7E012B46D104EB4402130120
:401880004D4A13445D680C232B8000232B73BDF80C304A4AA2FB03235B092F4627F80A3F5521204600F00EFE0497454B1B788DF81830444B1A884FF47A7303FB02F2424B0E
:4018C000A3FB0213D21A03EB5203C3F3CF23ADF80E30684605F03CF83C4B984203D9062601E05B006B81BDF80C106B8941F2707202FB03F29142F4D8032BF2D90AAB03EB0C
:40190000840343F80C0C05E001220AAB03EB840343F80C2C0134022CA7D900242AE004EB44021301244A1344DB7E012B21D104EB44021301204A13445D685521204600F0F7
:40194000C1FD064305F10A0304930AAB03EB840353F80C3C02931A4B1B788DF81830EB89ADF8063005F110030593684605F016F828800134022CD2D9002416E004EB440209
:4019800013010D4A1344DB7E012B0DD104EB44021301094A134459682046FFF721FF5521204600F08FFD06430134022CE6D930460BB0F0BDE8410308DC9F0810F1197605E5
:4019C000B0420208B242020801011000870D0100F8B5002428E0620022441301144A13445D68DB7E012B02D0022B05D016E029462046FFF7F5FE16E02E88204601F036FAD7
:401A000007463146FFF7A0FC064601463846FFF7F3FC0001C0B23043287304E040F25971044802F07FF80134022CD4D9F8BD00BFDC9F081030A1081008B5FFF7C9FFFFF7D3
:401A4000DBFD0020FFF7B0FD002008BD38B52D4D2A6893692C4CE31ADB09526902EB03135A6822F0F8525A60802363602B6893F87D20135923F0704343F0C04313512A6883
:401A80009369E31ADB0951691B01CA5822F4F852CA50022363602B6893F87D20135923F0F00343F0600313512A689369E31ADB0951691B01CA5822F4F812CA50042363603D
:401AC0002B6893F87D20135923F4706343F4C0631351012002F01AF82B6893F87D20135923F0704313512B6893F87D20135923F0F00313512B6893F87D20135923F47063FF
:401B0000135138BD94420308800332400F4B1B7803EB43031A010E4B1A4453680D4AD2F8D02091B2188801238340013B994206D2094B1B680949097823F811207047064A01
:401B400012680649097822F811307047E2770208DC9F0810000036408C420308ECA0081038B5234A1378234C03EB4303190121444868137803EB43031A012244127E013A5E
:401B80001D4B1B78DBB29A421CD91B4C23780133DBB22370164D2B7803EB43031A01154B1A449168237803EB83035A000A44134B1A6000F019FA2878217800F035FB00F08F
:401BC0007DFA38BD00220C4B1A704FF48030FFF763FC0B4B1B78012B02D1FFF721FD38BD8020FFF759FC074A13890133138138BDE2770208DC9F0810E87702088C42030870
:401C0000E1770208E841030808B5FEF7EBFE084B4FF483721A601B68FFF778FF054A1389013313810448FFF737FCFEF7DDFE08BDF0003640E84103088000010010B50E4B88
:401C40001B7803EB43031A010C4B9B580C4A147803EBC404FEF7C6FE0A4B4FF483721A601B68FFF753FF204600F0F0FAFFF778FFFEF7BAFE10BD00BFE2770208DC9F081039
:401C8000E8770208F000364001390843014B1860704700BF000236400E4B1B6823F4F8730D4A917F0D4AB2FBF1F20D498A4204D843F02003074A136070470A498A4204D8A8
:401CC00043F03003034A1360704743F04003014A13607047AC420208E8410308006CDC02001BB70000366E01044A054B1A604FF0A17203F580731A60704700BF00004301A6
:401D000000043640084A136803F07F0343F0A17343F48033136002F58072136803F07F0343F480031360704700043640074A136843F0805343F001031360054A054B1A6077
:401D40004FF0A17203F580731A607047A8023640000043010004364010B40488012000FA04F4013C04EB840303FA00F00C4BA3FB00035B0901335818844200D220468B4249
:401D800001D8C91A00E00021914203D8904203D2062002E0062000E000205DF8044B70471F85EB510023164A136002F5927213600432136006212C3A11604FF48071083A27
:401DC00011600121903A1160A2F580724FF48371116012680B4A136003220B4B1A604FF4707300E0013B094A126812F0040F01D1002BF7D113B90822034B1A60704700BF90
:401E00008C013640F800364040033640F00036401D4B4FF483721A601B681C4BB3F90030002B08DB590903F01F03012202FA03F3174A42F821300023164A136030321360E1
:401E4000043213602C3A1360983A13600121643A11600C3A13608032136843F08073136002220D4B1A604FF4707300E0013B0B4AD2F8842012F0070F01D0002BF6D140F2E3
:401E80000132074B1A607047F0003640609F081000E100E080023640F8003640000036404003364070B5FFF74FFCFFF7CFFD4FF48032404B1A604048036843F0805343F04B
:401EC0000103036000233D4A136002F5E07213600C32136060321360A2F5CE72136002F582721360083A1360354C2360A2F5807213604FF0487102F5A8721160314D2A6805
:401F000092F87D60304AB15821F07041B15029688D69521BD209496901EB0212516821F0F85141F08061516028490A6842F480520A604FF48071264A1160026842F08052C5
:401F400042F0010202604FF0807222490A6041F24140A1F58E71086001F584710B602260FFF7C2FE1C4B9B7F013BFF2B0BD8154A12689068B2F87410425822F47F421B022E
:401F80009BB213434350FFF787FE144B1B6843F0004343F48053124A13600F22114B1A600022A3F588731A600A2203F590731A6070BD00BF04023640A8023640F400364076
:401FC00084023640944203088003324094023640A0023640A4023640E8410308AC420208000036400003364038B5054601F005FE0D490B6823F07F020C4B1C7825446B7AF2
:4020000013430B6001F0FDFD01F0F7FD08490B6823F07F02074B1B681C44637A13430B6001F0EFFD38BD00BF00043640ECA00810000536408C42030830B401248C40631E8B
:4020400040B10F2904D9A4F10A03B3FBF0F301E0B3FBF0F3053A012A00D85B080BB9012000E0184630BC704708B50C4B1B7803EB43031A010A4B1A44536859891B7B180452
:402080005A1F012A01D840F00070053B012B02D8490800D10121FFF7F7FD08BDE2770208DC9F081008B5027B01884089FFF7C4FF80B2014B186008BD1403364008B50D4B32
:4020C000B3F90030002B0DDB5A0903F01F03012101FA03F32032084941F82230BFF34F8FBFF36F8F0122054B1A60FFF75BFEFFF78FFE08BD609F081000E100E080013640A5
:4021000008B50348FFF7BCF9FFF7D8FF08BD00BF80000100F8B5054601F06FFD06462F682C79072C04D94FF47171204801F0FAFCA4001F4B1B6893F87D00C2590F23A340F0
:4021400022EA0301062202FA04F30B43C3512C682D79072D04D94FF42271144801F0E2FC134B1A689369E31ADB0952691B01D118032D0BD8D158ED001F20A84021EA0000AE
:402180000B2101FA05F50543D5500BE0043D4B68ED001F22AA4023EA02020B2303FA05F515434D60304601F02CFDF8BDF0A008109442030870B5164E3378164C03EB4303C7
:4021C0001A0122445068144D00232B70337803EB43031A01224491682B7803EB83035A000A440E4B1A60FFF7FFFE337803EB43031A01A358287803EBC000094B1860FFF7A4
:4022000089FF0848FFF748FAFFF77AFF70BD00BFE2770208DC9F0810E87702088C420308904203083D1C081008B500EB40000301044AD05800EBC100034B1860FFF76AFF7A
:4022400008BD00BFDC9F081090420308F8B5064601F0D3FC074634683579072D04D94FF42271234801F05EFC224B1A689369E31ADB0952691B01D118032D08D8D158ED00CB
:402280001F2000FA05F521EA0505D55008E0043D4B68ED001F2202FA05F523EA05054D6035683479072C04D94FF47171104801F039FCA4000F4B1B6893F87D0042590F239A
:4022C000A34022EA03010E2202FA04F30B43435135683479072C04D940F28131044801F021FC0123A3406B60384601F08AFCF8BDF0A008109442030808B5064B1B78012B7C
:4023000006D1054B1868FFF7A1FF0022014B1A7008BD00BFE97702089042030870B5124D00EB400213012B445C68C0B20F4E30700120FFF739F9FFF7DFFF337803EB43033A
:402340001A01AA580A4B1A600A4BDA6822F07F02DA603178DA680A43DA602046FFF7A2FEFFF782FE70BD00BFDC9F0810E277020890420308E841030838B5420002441301AD
:40238000104A13445D68C9B20F4C21709968237803EB83035A000A440C4B1A60FFF7BEFF2846FFF721FE2078094A136803EBC0001060FFF7AFFE0122064B1A700648FFF718
:4023C0006BF938BDDC9F0810E87702088C42030890420308E9770208091C08102DE9F84307460D4690462E490B7803EB43031A012C4B1A4456684FF0000985F800900878B3
:40240000294B1978FFF7B8FFFFF77CFC8024B94503D22B7823EA04032B7064082B7823432B703046FFF7E0FDFFF76AFE1F4B00E0013B1F4AD26812F0800F01D0002BF7D17E
:402440001C4B1B68B3F80090002CE0D1144B1B7803EB43031A01134B9B58134A107803EBC000154B1860FFF7F1FE0022134B1A70FFF75CFC4A4639463046FFF76DFC98F8AC
:4024800000202B789A4205D288F800300C4A1371A2F80690074B1B682A785A72BDE8F883E2770208DC9F0810E877020830330300E84103088C42030890420308E977020870
:4024C000AC4202082DE9F04383B004460F4600EB40023C4B03EB02135E6801258DF80450B14639F8098B05FA08F808F1FF3801FB08F3354AA2FB03384FEA5818C2B2334B79
:402500001A703348FFF7C8F8324B1D71DD800025314B1D700AE001AA49464046FFF75EFF05432D4A13780133DBB2137004EB4403244A02EB03131A7F274B1B78DBB29A4211
:40254000E9D89DF8043001335B0873720022224B1A7024E004EB44031A4A02EB03139A681D4B1B7803EB830302EB43021B4B1A60537A717A8B420BD35B1ADBB207FB03F3BB
:4025800063331149A1FB0313C3F34713537201E000235372104A13780133DBB2137004EB4403084A02EB03131A7F0B4B1B78DBB29A42CFD80022084B1A70284603B0BDE8D0
:4025C000F08300BFDC9F08101F85EB51E2770208091C0810AC420208E87702088C42030842890388901E10FB03F080B2704700BF08B52A4BB3F90030002B0DDB5A0903F03B
:402600001F03012101FA03F32032254941F82230BFF34F8FBFF36F8F224B4FF483721A601B68214BD3F8D020D3F8D4309BB213FA82F31E4A128892B2934204D91B4A13887B
:402640009BB2538002E09BB2184A5380184B1B689847184BDB6813F0800F0FD1164A124B1A604FF4407203F5C6731A60134A03F51D731A601F22A3F598731A60074BB3F967
:402680000030002B08DB590903F01F03012202FA03F3034A42F8213008BD00BF609F081000E100E0F000364000003640EC770208B4420208E841030820100C80800E430111
:4026C0003F4B1A683F4B1B7813445A7A3E4B13433E4A136000233E4A53803E493E4A1160012102F5C0721160112102F5807211604FF08071043211603C3213600622374B04
:402700001A60374A28331A6041F2101204331A60344AC43B1A6040F2033203F5A8731A604FF4707300E0013B2F4A126812F0010F01D0002BF7D12C4B1B6813F0010F03D0ED
:402740004FF44272284B1A60284BDA7F284BB3FBF2F3284A934204D9274A934203D8302302E0202300E0402343F0004343F44123194A136040F20132204B1A6000232049E6
:402780000B6001F580710B6004310B603C310B6038390B601B482831086042F2102004310860C4390B601F21174B1960A3F5F0734FF4837119601B680B4B1A60704700BFEC
:4027C0008C420308ECA00810800E430100043640EC77020820100C80000036408802364001010100AA00050040033640E8410308006CDC02001BB70000366E018C0136400E
:402800008001364001030300D002364010B5FFF71DF949490B6893F87D00484BC25822F0F002C2500A6892F87D10CA5822F47062CA504FF4837203F57F3303F5B8731A6085
:40284000002404331C60022204331A6088331C6004331C6041F2415204331A604FF4407204331A60364A03F51D731A6003F580731C60344AA3F544731A60334A10331A603B
:4028800004331C607C331C6004331C6004331C6008331C6001F0B1F92C4A136823F48053136001F0AEF92322294B1A604FF0807204331A6001F0A1F9264A136823F080532B
:4028C00023F4801343F08053136001F09AF9224A224B1A6042F2102204331A600C331C601F2210331A600F2230331A60042210331A6004331C600C331C604FF44272203365
:402900001A60174AA3F550731A60164BDB7F013BFF2B0BD8084A12689068B2F87410425822F47F421B029BB213434350FEF764FE0D48FEF7B1FE10BD94420308800332403A
:40294000800E4301AA0005002800000C94023640A0023640A802364001030300B002364020100C80E8410308F12508102DE9F84380460E46430003441A012A4C1444D4F867
:402980000890294BC3F800906068FFF729FE274B1880198889B201FB06F1254EA6FB0136E37E022B3CD17609227F657F05FB02F5002109E01C4A13680020188013684020A3
:4029C00058720A3313600131A942F3D32024402700E01C464046FEF76BFDFEF79DFD154BDB6813F0800FFAD10F4BC3F8009000210FE00D4B1B681A88964203D25A7A22EA5C
:402A000007025A725A7A22435A720A33064A13600131A942EDD3C4F347032746002CD8D1BDE8F883DC9F08108C420308EC7702081F85EB51E8410308F8B5054601F0DDF8D1
:402A400006462F682C79072C04D94FF47171204801F068F8A4001F4B1B6893F87D00C2590F23A34022EA0301062202FA04F30B43C3512C682D79072D04D94FF4227114480D
:402A800001F050F8134B1A689369E31ADB0952691B01D118032D0BD8D158ED001F20A84021EA00000A2101FA05F50543D5500BE0043D4B68ED001F22AA4023EA02020A2343
:402AC00003FA05F515434D60304601F09AF8F8BDF0A0081094420308F8B5054601F08DF806462F682C79072C04D94FF471711F4801F018F8A4001E4B1B6893F87D10CB5944
:402B00000F2202FA04F423EA0404CC512C682D79072D04D94FF42271144801F003F8144B1A689369E31ADB0952691B01D118032D0BD8D158ED001F20A84021EA00000421D7
:402B400001FA05F50543D5500BE0043D4B68ED001F22AA4023EA0202042303FA05F515434D60304601F04DF8F8BD00BFF0A008109442030810B500220F4B1A700F4B1B6877
:402B800099680F4A11605A7F0E4CA280187FE0801B68A36003EBC000E060FFF74DFFA068FFF79AFF084A094B1A608020FEF768FCFFF786FD10BD00BFE8770208E4770208C5
:402BC0008C420308EC770208E12C0810B442020870B5054601F011F806462C682D79072D04D94FF42271114800F09CFF104B1A689369E31ADB0952691B01D118032D08D825
:402C0000D158ED001F2000FA05F521EA0505D55008E0043D4B68ED001F2202FA05F523EA05054D60304600F0ECFF70BDF0A0081094420308F8B5064600F0DFFF0746346896
:402C40003579072D04D94FF42271234800F06AFF224B1A689369E31ADB0952691B01D118032D08D8D158ED001F2000FA05F521EA0505D55008E0043D4B68ED001F2202FAD6
:402C800005F523EA05054D6035683479072C04D94FF47171104800F045FFA4000F4B1B6893F87D0042590F23A34022EA0301062202FA04F30B43435135683479072C04D9AB
:402CC00040F28131044800F02DFF0123A3406B60384600F096FFF8BDF0A008109442030810B5FDF77FFE2D4B19682D4B18782D4C23889AB263889BB2D31A21F81030E06808
:402D0000FFF766FF284A13780133DBB21370A388013B9BB2A3805BB1E0680830E060FFF78BFE1E4A13680A331360FFF7C9FC31E01C4AD388013B9BB2D380D3B11446906803
:402D4000FFF778FFA0680830A060FFF7C5FE174B1A68537FA3801368107F03EBC000E060FFF76AFE0D4A13680A331360FFF7A8FC10E00C4B9868FFF75DFF0D4B1B7813B15A
:402D8000FEF74EFC06E00B4A1389013313818020FEF782FBFDF728FE10BD00BF8C420308ECA00810EC770208E8770208E4770208E1770208E8410308074B1B8A53B110B56F
:402DC000054CE068FFF704FFA068FFF733FF0023238210BD704700BFEC77020838B50446C2B21A4B1A700220FEF7DEFBFFF7E4FF04EB44042201164B1344164A13605D688C
:402E00006C892A88144B1A602846FFF7E9FB134B18802B7B013CC4F30B0444EA034444F040640F4B1C600F4BDB7F013BFF2B0BD80D4A12689068B2F87410425822F47F42A3
:402E40001B029BB21343435038BD00BFE2770208DC9F0810E477020814033640EC77020800023640E84103089442030800EB40000301024A13445B6858897047DC9F0810A9
:402E8000F0B50023334C237004461E460BE0E588954206D9AE4204D22E4E3371012737702E460A3401338B42F1D32A4B1B78002B47D14BE0274EB3181B7903EB83056C0024
:402EC0000519B5F806E002EB42077D003544A5F80AE09BB901EB81056C000A3C0444E688550015446C001B4D2C442681013303EB83035D000544EB88A38120E04D1EEDB2B8
:402F0000AB420CD1A4F10A030344DD88540014446300104C23441D81C4889C810FE00A3C0444E688550015446C000A4D2C442681013303EB83035D000544EB88A381013215
:402F400000E00022034B1B789A42B3D3014B1878F0BD00BF007802082DE9F041002533E01D4C2C4424793CB905EB45077E001A4F3E440027378109E0561EB44206D105EBBA
:402F800045077E00144F3E440027B7816F002F447E00114F3E44B6F80C80B6F808E0CEEB0807B6F80AC00EEB0C0608EB060E01FB07F696FBFEF604FB013434447F34C4F30B
:402FC0000F2420F815400135034C2478A542C7D32046BDE8F08100BF0078020800B10180704700BF38B50D4B9A680D4B9A420FD10D46044621B940F237110A4800F092FD0D
:4030000004F11003064A52F8230042F8235038BD1030054B53F8200038BD00BF00ED00E0004002085CA108100000081048B338B504460D464368072B03D93221134800F05A
:4030400071FDB4F900306268002B08DB5201D2B203F1604303F5614383F8002305E003F00F035201D2B20A49CA540A4B9A680A4B9A4208D12946B4F90000FFF7B3FF00200E
:4030800038BD06487047002038BD00BF5CA1081014ED00E000ED00E0004002080100560038B50B4B1B68D3F8B4301B58002B0DDA0D4604460B0C1B0423B140F2D5210548C8
:4030C00000F030FDA9B26160002038BD024838BD94420308A0A1081001008A0038B50368002B01DA002300E0094B73B90D460446C2600B0C1B0423B140F2BB21054800F089
:4031000011FDA9B2A160002038BD014838BD00BF01008A00A0A1081038B504460D4619B99921084800F0FEFC074B1B68D3F8B4301B59002B03DAE3682B60002038BD0348A9
:4031400038BD00BFE0A108109442030801008A00254B1B6893F8313083423AD900293AD00B6813F01F0F38D170B50D4604461E4B1B6893F83130984204D340F2C3111B484B
:4031800000F0D0FC184B1B68186AB3F8B03004FB0304174E34602A68D2080021686804F081F800212046FFF77BFF346825B940F293310E4800F0B6FC2A4600212046FFF74B
:4031C0008DFF60B900210A4B1868FFF769FF40B970BD084870470748704706487047064870BD054870BD00BF94420308A0A108101078020803018A0001018A0010B50446F5
:403200001346B2B9A9B9124B1B6893F83130984204D340F2C3110F4800F084FC0C4B1B681A6AB3F8B03004FB03240B4B1C60002010BD43B149B1084A51609360111D2046D8
:40324000FFF786FF10BD054810BD044810BD00BF94420308A0A108101078020803018A002DE9F0411B4B1B68DC68236883422CD90D464609A0EB4610012303FA00F819B983
:4032800000F0BBFC074600E00027124B18680368002B01DA002300E00F4B83B9626852F8263018EA030F05D023EA080342F82630002400E0094C0021FFF7F2FE00E0084C9D
:4032C00025B9384600F09DFC00E0064C2046BDE8F08100BF1078020801008A00020188000301880004018A000B4B1B68DB681A6882420CD94109A0EB4110012202FA00F03D
:403300005B6853F82130184203D004487047044870470448704700BF107802080101880004018A0000018800024B1B680BB9014B186070471C7802082DE9F84304468846EF
:4033400091461D46089F2C4B1B681BB9B5212B4800F0E8FB284B1B682C2000FB04F01C18EEB21E50C5F3072363602D0CA560244B1B6893F831309E4204D340F2C311214828
:4033800000F0D0FB1E4B1B68196AB3F8B02006FB02162661666893F832309E4204D340F2DF11184800F0BEFB154B1B681D6A803605EB46156561A668330C1B0423B14FF477
:4033C000FF71104800F0AEFB330C1B0423B140F2FF110C4800F0A6FBB3B243EA0646AE60C4F81C90C4F820800023A36117B1B7F90030A381BDE8F8831C78020820A20810D8
:4034000094420308A0A10810F0B58FB0044618B95221274800F086FBA369072B03D95621234800F07FFBE36A1BB95821204800F079FB236B1BB959211D4800F073FB07ADE1
:4034400004F114060FCE0FC537682F6002AD26460FCE0FC533682B60164B1B68B3F93620079B1344ADF83030089B0D93A26AE16A0CAD00953B460A98FFF75EFF0021009178
:40348000069B0A460598FFF757FF216B2846FFF7CDFDBDF93030002B08DB590903F01F03012202FA03F3044A42F821300FB0F0BD20A208109442030800E100E0F8B506460E
:4034C0000F461D4614461AB9FD211F4800F02AFB1E4B1B681BB9FE211B4800F023FB1B4B1B682C2101FB063001FB07314B68012202FA03F31B04466802FA06F60269EAB1CE
:403500008F69EFB91268002A01DA002200E0104AC2B92288134323600369DC6001238B614D620469330C1B0423B140F2BB21094800F0F8FAB2B2A2600020F8BD0648F8BD8D
:403540000648F8BD0548F8BD20A208101C78020801008A00A0A1081004028A0007028A00F8B505460F4616460E4B1B6823B94FF4AF710D4800F0D6FA0A4B1B682C2404FBC7
:403580000534236A23B94FF4B171074800F0CAFAE369B34204D9236A43F826700020F8BD0248F8BD1C78020820A208100A028A0038B504460D46074B1B6823B94FF4C871EC
:4035C000054800F0AFFA034B1B682C2202FB0434A56238BD1C78020820A2081070B582B000230193044620B940F2D111284800F099FA236923B94FF4E971254800F092FAF7
:40360000636923B940F2D311214800F08BFA236A23B94FF4EA711E4800F084FA6369DD682A0C20D012041A601B682069194B1B68D3F8B430C358002B15DA01A9FFF76CFD6C
:4036400060B9019803681E0CDBB2E269934206D2226A52F8233013B1984700E0002631462069FFF71DFDADB275B16369ADB21D601B68636A1BB198470023636202E0A36A9D
:4036800003B198470023A36163691B6802B070BD20A208109442030810B50446074B1B6823B940F2B111064800F03CFA034B1B682C2000FB0430FFF791FF10BD1C78020802
:4036C00020A2081010B50446104B1B6823B940F22B210F4800F026FA0C4B1B682C2202FB0434B4F90C30002B0DDB5A0903F01F03012101FA03F32032064941F82230BFF380
:403700004F8FBFF36F8F002010BD00BF1C78020820A2081000E100E010B504460D4B1B6823B940F24B210C4800F0FCF9094B1B682C2202FB0434B4F90C30002B08DB5909C6
:4037400003F01F03012202FA03F3044A42F82130002010BD1C78020820A2081000E100E0036813F4006F01D0802200E04022D0F80832C3F30803934203D0C0F840120120F4
:4037800070470020704700BF1F4B98422DD00CD840282ED003D8E8B1102828D02FE0802829D0B0F5807F28D029E0184B984228D006D8B0F1204F0DD0154B984212D01EE01E
:4037C000144B98420AD00133984209D0023B984215D101E0002070470F4870470F4870470F4870474FF4A0007047074870470D4870470D4870470D487047034870470C48D6
:4038000070474FF4A400704706005200010000F0090000A0040000F0010052000200520003005200010050000200500005005200FF00520038B5124B1B6893F83130012B21
:4038400004D840F2C3110F4800F06CF90C4B1D682A6AB5F8B03013442C46D5F8B420D358002B0BDB084B1868FFF78EFF6B6801229A6063689B68002BFBD138BD034838BDD7
:403880009442030860A2081020780208020050001A4B186128B102230370FF23437000234380174B1B6893F850202AB300B583B0B3F93830ADF800300023019311496846C2
:4038C000FFF7B4FBBDF90030002B08DB590903F01F03012202FA03F30B4A42F82130084B1B6893F8513023B1022208490120FFF737FE03B05DF804FB704700BF207802082D
:4039000094420308CD46020800E100E08547020808B50248FFF7BCFF08BD00BF347802082DE9F04104460D46174698469DF81860072903D9D921354800F0F4F837F00F033C
:4039400003D0DA21314800F0EDF8B8F1010F03D9DB212E4800F0E6F836F01F0303D0DC212A4800F0DFF822680123AB4022EA030308F0010808FA05F843EA08032360244B30
:403980001B6893F87D100B59A8000F22824023EA020207F00F0303FA00F717430F51072D04D94FF422711B4800F0BCF836F01F0304D040F28921174800F0B4F8144B1B68E2
:4039C0009A69A41AE4095B6924011919032D0DD81959ED001F22AA4021EA020206F01F0606FA05F515431D51BDE8F081043D4A68ED001F23AB4022EA030306F01F0606FA25
:403A000005F51D434D60BDE8F08100BFA0A2081094420308E0A2081010B30246C3680BB303680BB330B40579114B03EB85035C682346002103E0934205D019465B69002B5B
:403A4000F9D1012000E0002080B124B9084B03EB85056A6000E04A6111610023536105E000207047002070470020704730BC70473878020850B310B402460479164B03EB42
:403A8000840359680B4602E0934204D05B69002BFAD1002000E00120D0B18A420ED14B6933B10D4A02EB8404636000221A610FE0094B03EB84040023636009E01A6959694A
:403AC00051615A6922B11B69136101E0002070475DF8044B704700BF3878020810B5044605E0084B186800F07FF8A4F50044B4F5004FF6D8044B186800FB04F000F074F80F
:403B000010BD00BFA8420208A442020808B5034B1B7800FB03F000F067F808BDA042020801BEFEE738B50D46044C18220146204604F0B4F8A5610020FFF7F2FFF84B020874
:403B4000FEE700BF08B50268254BDA6142681A6282685A62C2689A620269DA6242691A6382695A63C2699A631E4A916AD963D16A1964516A5964516B9964926BDA64F1EE9C
:403B8000103A13F0900F27D0026A154B1A65426A5A65826A9A65C26ADA65026B1A66426B5A66826B9A66C26BDA66026C1A67426C5A67826C9A67C26CDA67026DC3F88020DC
:403BC000426DC3F88420826DC3F88820C26DC3F88C20026EC3F89020FFF7B2FF08BD00BFF84B020800ED00E00230800803D001300238FCD100BF00BF7047EFF3108072B61B
:403C0000704780F310887047002800F0AC8070B40446002A00F0A98092F828300BB1012500E00025137F0BB1022300E000231D431669B60406F4802645EA060395682D0438
:403C400005F440351D431668300600F0E0602843136B556B43EA45031B0503F440130343906B43EA8000052E03D1D3681B029BB202E053681B029BB20343081D800123500A
:403C80001368062B08D104EB81130120C3F808013F20C3F828011DE0936843B904EB81130020C3F808013120C3F8280112E0012B08D1506904EB8113C3F808011C20C3F856
:403CC000280107E004EB81130120C3F808011220C3F82801106A04EB8113C3F80C01506AC3F810015069C3F814019069C3F81801136EB3F1FF3F17D0106C00F00F00966CCE
:403D0000360206F470663043156D2D0405F470250543906D000380B228431B01DBB2034304EB8110C0F82031D36B03F00303566C360106F030063343D56C2D0205F440757A
:403D40002B43506D8001C0B21843D36D9B0003F00C03034304EB8114C4F82431D36AC4F83831002002E002487047014870BC70470100B600014B1860704700BF94420308AF
:403D800010B5012902D0082929D02EE01A4B1B78012B2CD00320FFF7A7FA184B984228D0FFF72BFF164B1860022007F0A7F9044607F0AFF9022C05D1032805D0052805D159
:403DC000002404E00F4C02E0002400E00D4C0D4B9C420FD10A4B1868FFF713FF0AE0084B1868FFF70EFF002404E0064C02E0054C00E0044C204610BD9C420308010188000B
:403E000074780208FF00420008B502291CD0082914D001291ED1124B1B78012B1CD0FFF7ECFE104B5860022007F068F9022815D00C4B5868FFF7E5FE0B4808BD094B5868A9
:403E4000FFF7DFFE002008BD064B5868FFF7D9FE054808BD044808BD034808BD002008BD9C42030874780208FF00420010B5044C2046FFF7FFFD04F11800FFF7FBFD10BD3F
:403E8000B8420208B0B110B50B4A9060C36A03B1D3600024094B1C70094B1C70094B1C60094B1C7000F06CF9084B1C70084B1C70204610BD0748704774780208AC420308B0
:403EC000B0420308B4420308B14203089B420308A04203080100160070B59AB0424D15AC28686968AA68EB680FC4286920604C22002102A803F0D6F93C4B029315AB049303
:403F000042F61013ADF8143005238DF81630384B9B681B69069341F2960307931B23ADF82030ADF8223003238DF8243004238DF8253006238DF8263010238DF827308DF87F
:403F400028308DF829307223ADF84C3001238DF85030284C2046FFF75FFD04F11800FFF75BFD07F0C7F808A807F01EF90346002836D1214B03931E4B9B68996B89B10B46BC
:403F80000DF12A0220311E685D689C68D868166055609460D060103310328B42F3D11B88138002A807F0C8F80346B0B90122134B1A700023124A1370124A13700C4B9B6803
:403FC0001A6A00929B6ADB88ADF804300823ADF8063068460FF0CAFE034600210A4A116018461AB070BD00BF90A40810A145081074780208B84202088C4C02089C4203089D
:40400000A4420308A5420308B442030818B1034A1061002070470248704700BF747802080100160008B5044B1B689847034B1B6803B1984708BD00BF9878020884780208FB
:4040400008B510B1034A52689047034B1B6803B1984708BD987802088478020870B5C0B006460C4615464FF480720849684603F00EF905E016F8012B6A401DF80250013C72
:40408000002CF7D1284640B070BD00BFA4A4081008B50022FFF7E2FF08BD00BF08B5FFF7ACFD08BD08B5FFF7ACFD08BD08B50120FFF732FB08BD00BF08B50120FFF702FB90
:4040C00008BD00BF08B5094B58601960012208491046FFF745FA034628B9002205490120FFF73EFA0346184608BD00BF98780208414008102540081038B515460B460246D6
:4041000001210020FFF7DAF9044618B129460120FFF74EFA204638BD704700BF704700BF002070470048704711001600004870471100160000487047110016000048704704
:40414000110016000048704711001600004870471100160000487047110016000048704711001600004870471100160000487047110016000048704711001600704700BF98
:4041800008B5024800F016FE08BD00BFE8430208F8B5022872D8002972D10022134606E03B4CE45C012C01D90132D2B20133002BF6D0012A0CD1374B1B681C6801EB8102A3
:4041C000930023445B681B79023BDBB2012B59D8314B1B78002B57D1304B1970E0B92D4F3C68236801EB8105AA009D186668C1EBC1014B001E44B188298221681144496870
:404200006468E45A0C8039680C682244526849680B445B8853801EE001281CD11D4F3C68236801EB8105AA009D186668C1EBC1014B001E44B1892982216811444D68616853
:4042400019440989298039680C682244526849680B445B895380124B18700E4B1B6818680E4B1B7803EB83039A0010440BF00EFB034650B90121084A117006E0094B04E0C2
:40428000084B02E0084B00E0084B1846F8BD00BFA44203087C780208A54203089A420308B14203080100160002001600FF00160070B439B9144B1B681B689968CE7F00237B
:4042C0001D460EE0104B1B681B68D968CE7FF6E7CA5C52B10133CC5C1B2C01D0134400E00125B34201D2002DF2D05DB101338279CA54002204E0D4180134855C0D550132F8
:40430000052AF8D970BC70477C78020870B504460FF078FD054620BB134B1968086A228902EB82029300143B03445A6812F0007F17D0E67B1B695A68CB69D21A06EB4606CF
:40434000B318A28821680948184402F0A0FFE37B074AD35C012B04D1064A137843F002031370284670BD00BF7C780208A8420308A04203089B42030830B587B002891A4BDE
:404380001B685B699B889A4229D1044601AB07C883E807000022ADF81020A289ADF8122040228DF814201846FFF7B0FF054680B923681B7803F002039BB22BB10B4B1B68D3
:4043C00021460B48984704E0084B1B68214609489847094A137803F0FE03137000E00025284607B030BD00BF7C780208807802080500010006000100AC42030838B502892A
:40440000531E9BB2112B1AD8C17BD1B90E4B1C68256A02EB82029300143B2B445A6812F0007F09D01B695A68E369D31A01EB41011944064B5B5A13800FF0B2FC38BD01201A
:4044400038BD012038BD00BF7C780208A84203084288531E9BB2112B1AD84178D1B910B40F4B1868046A02EB82029300143B23445A6812F0007F0FD01B695A68C369D31A3F
:4044800001EB41011944074B5B5A1380002004E0012070470120704700205DF8044B70477C780208A842030800B583B00023ADF804308389ADF800300389ADF80230122358
:4044C0008DF80430084B1B7813F0010F09D129B18DF8051068460EF077FD02E0C0680EF093FD03B05DF804FBAC42030810B4044688B10023194606E0104A52F82320944298
:4045000000D1012101330D4A1279934206D20029F2D0002003E00021094800E0002050B949B9064B1B792BB9044A42F823400133137100E003485DF8044B7047B842030863
:40454000010016000300160070B506460D460020044606E0084B53F824302946304698470134054B1B799C4204D2044B1B7813F0010FEFD170BD00BFB8420308AC420308D5
:4045800083792BB100207047C25C32B9013300E00023052BF8D9002070470120704700BF70B58CB004460D46BF4A137843F00103137044F20803984200F04C823CD842F230
:4045C0000403984200F0F08019D841F20203984200F0178108D8B0F5805F76D041F20103984200F00B8157E341F20303984200F0418141F20403984200F049834CE343F285
:40460000190398425BD00AD843F20103984200F0B98043F21203984200F0B4803CE344F20603984200F01A8200F2CD8144F20403984200F032812FE345F20C03984200F013
:40464000DD821BD845F20103984200F046820AD844F20A03984200F0B38144F21003984200F0B18118E345F20203984200F0808245F20303984200F0B7820DE345F2100336
:40468000984200F0F6820AD845F20E03984200F0EA8245F20F03984200F0E882FCE245F21703984200F0EB8246F20103984200F0118245F21403984240F0EE82DCE27A4A92
:4046C000137803F0FE031370E6E2784B1E683046FFF756FF60B130460CF0CEF8734E00213068FFF7E5FD01213068FFF7E1FD37E06F4B1A68936A1B791BB34FF0B05191F842
:40470000043603F03F0391F8050600F03F0043EA801391F8030600F01F0043EA003391F8001601F07F0143EA4143126B1370604A1168096BC3F3072048701268126B1B0C7B
:4047400093705B4E3368186B0CF096F833680021186BFFF7ADFD33680121186BFFF7A8FD534B1B68986A02300CF09CFC514A05AB1068516803C305A80CF0A2F802224E4B00
:404780001A7089E200234C4A13704C4A13704C4A13700A20FFF7A2F943F212039C4240F07B82FFF763FB77E2464B1B6813F0010F40F072820023ADF814308DF816303C4E2D
:4047C00033689B6A93F900308DF8143005A80CF091F833689B6A93F901308DF8143001238DF81530FF238DF8163005A80CF082F8344A136843F0010313604DE2FFF7A4FED4
:404800004AE24978304B1B88ADF81430002319E02E4A32F81320ADF808209DF8092012B92B48825C00E00022012A0AD9274A12F81320914205D1254A32F81330ADF81430C0
:4048400002E00133002BE3D09DF81530FF2B05D104D140F2CA311F48FFF764F9BDF81430ADF82030ADF81C30C3F3072329781A4AD15411E20B78002B40F00E820B7A33B9F3
:40488000164B0022DA809A80154A1A604B60064A137803F0FE031370FEE149790A4B1B88ADF81430002337E0AC420308E84202087C780208A4A508109C420308A542030808
:4048C000B0780208B4420308ACA5081098420308A4420308B0A50810B0420308B87802089C750208AF4A32F81320ADF80C209DF80D2012B9AC48825C00E00022012A0AD9F1
:40490000A84A12F81320914205D1A64A32F81330ADF8143002E00133002BE3D09DF81530FF2B05D104D140F2CA31A048FFF7FAF8BDF81430ADF82430ADF81430C3F30723FE
:4049400069789B4AD154EB78002B40F0A5816979984B1B88ADF81430002319E0914A32F81320ADF810209DF8112012B98E48825C00E00022012A0AD98A4A12F813209142B5
:4049800005D1884A32F81330ADF8143002E00133002BE3D09DF81530FF2B05D104D140F2CA318248FFF7BEF8BDF81430ADF82830ADF81430C3F3072301217F4AD1546BE198
:4049C000FFF7C2FD68E1AB7E002B3FD12B7E012B02D10022794B1A70E97E764B1B88ADF81030002319E06F4A32F81320ADF814209DF8152012B96C48825C00E00022012A2E
:404A00000AD9684A12F81320914205D1654A32F81330ADF8103002E00133002BE3D09DF81130FF2B05D104D140F2CA315F48FFF779F8BDF81030ADF82C30ADF81030C3F38F
:404A40000723FF2B02D0297E5D4AD15402225D4B1A7021E102225B4B1A701DE1FFF774FD594B1B7813F0010F00F01681534B1B78012B03D10222514B1A700DE1032B03D150
:404A800000224E4B1A7007E1022B40F0058100224A4B1A704D4B1B685B684D4A1178C1EBC10203EB42039A79002A00F0F5809B88002B00F0F180474B1B78002B40F0EC80C8
:404AC0000120FFF765FB002840F0E68001223B4B1A70E1E0FFF738FDDEE00B88ADF800309DF801301BB902212F4AD15405E023B940F286312D48FFF715F86A782988294BB8
:404B000023F812106B780021334AD15403EB4302324E91192D4B1B6818692B7803EB430303F584531033034433F8060F9B7890538B70687800EB400002213044FFF7A8FA1E
:404B40006B7803EB430333449B7898420BD0244B1B680021234898476B7803EB4303981900229A53827029462046FFF7EDFC93E00B88ADF804309DF805301BB900210A4A13
:404B8000D15405E023B940F286310848FEF7CAFF6B780021084AD15429462046FFF7D4FC7AE000BF98420308A4420308B0A50810A0420308ACA50810B0780208A54203082C
:404BC000B47802089C420308AC4203087C7802089A420308B1420308B0420308A842030880780208040001000B88ADF814301723ADF8163005A80EF0F3F94DE00846FFF718
:404C0000BBFB014620B929462046FFF79DFC01462846FFF749FC294B1B7813F0110F04D0274B1B682946204698472A89234B1B7813F0010F11D0531E9BB2112B0DD91223E6
:404C40008DF81830ADF81620AB89ADF8143001238DF8193005A80EF0B7F9184A137803F0FE03137018E0FFF76FFC15E0FFF76CFC12E0FFF769FC0FE0FFF766FC0CE0084644
:404C8000FFF7E6FB29462046FFF75EFC04E00D4A137843F001031370084B1B7813F0110F09D0064A137803F0FE031370044B1B682946204698470CB070BD00BFAC4203081D
:404CC000807802089B4203081C4B1B68002B34D01A4B5B681B685A8803899A422DD18388012B2AD103681B78022B26D810B588B0044603AB07C883E807000022ADF818202E
:404D0000A289ADF81A2040228DF81C201846FFF7FDFA80B9A389ADF8043000238DF806300294064B1B6801A905489847054A137803F0FE03137008B010BD7047C4780208CC
:404D4000BF000100AC42030800B587B000238DF81730009301930293039304930123ADF80430074B5B681B685B88ADF808300DF1170300936846FFF7C9FA07B05DF804FB44
:404D8000C4780208B0F5803F11D208B583B245F20202934207D045F20E02934205D10846FFF792FF01E0FFF7CFFF002008BD0020704700BF50B110B5064C60600648FFF78A
:404DC00095FB63685B681BB1236010BD0348704710BD00BFC4780208854D081001001600044B18605B6813B15860002070470248704700BFC478020802001600DAB11346C5
:404E0000D8B901291BD100B587B0002202920392049205920193ADF808100B4B5B681B685B88ADF80C3001A8FFF7E8FA08B1074807E0002005E005487047044870470348EF
:404E4000704707B05DF804FBC47802080100160000F1080343604FF0FF328260C360036100230360704700BF00230361704700BF43684B609A688A609A685160996008614B
:404E8000036801330360704730B40D68B5F1FF3F01D1026907E000F1080200E01A4653681C68A542FAD253684B6099608A605160086103680133036030BC7047036942688D
:404EC000816891608268416851605A68904201D182685A60002202611A68013A1A601868704700BF10B5044601F05CFBA26BE36B9A4201D1012400E0002401F075FB204688
:404F000010BD00BF10B5044601F04CFBA36B0BB9012400E0002401F067FB204610BD00BF70B504461646856B026CFAB166B9806802F0ADF9A268236C1344A3606268934259
:404F400014D32368A36011E0C06802F0A0F9236C5B42E2681A44E26021688A4202D262681344E360022E01D105B1013D0135A563002070BD026C72B110B50346C4681444D1
:404F8000C4604068844201D31868D8600846D96802F07DF910BD704738B5054601F002FB95F8454064B20AE06B6A53B105F1240000F06EFF08B100F0F9FF013C64B2002CB0
:404FC000F2DCFF2385F8453001F00EFB01F0EAFA95F8444064B20AE02B6953B105F1100000F056FF08B100F0E1FF013C64B2002CF2DCFF2385F8443001F0F6FA38BD00BF8E
:4050000038B540B94FF0200383F31188BFF36F8FBFF34F8FFEE704460D4601F0C3FA2168E26B236C03FB021060600020A063A160013A02FB0313E360FF2384F8443084F831
:4050400045307DB92369ABB104F1100000F020FF80B14FF08052094B1A60BFF34F8FBFF36F8F07E004F11000FFF7F2FE04F12400FFF7EEFE01F0B8FA012038BD04ED00E0E2
:4050800010B5029B0C4609B91B6000E01A60D8631C6401211846FFF7B3FF10BD40B94FF0200383F31188BFF36F8FBFF34F8FFEE7F0B583B0034611B101FB00F000E0002097
:4050C0001D4617460C46483001F0AAFB064638B100903B4600F1480221462846FFF7D0FF304603B0F0BD00BF40B94FF0200383F31188BFF36F8FBFF34F8FFEE7884208D2AD
:405100004FF0200383F31188BFF36F8FBFF34F8FFEE710B50C4602220021FFF7BFFF034600B18463184610BDF0B585B0019240B94FF0200383F31188BFF36F8FBFF34F8FA6
:40514000FEE7044619B9026C1AB9012202E0012200E0002242B94FF0200383F31188BFF36F8FBFF34F8FFEE7022B03D1E26B012A02D102E0012200E0002242B94FF0200382
:4051800083F31188BFF36F8FBFF34F8FFEE71D460E4600F013FF18B9019B1BB9012302E0012300E0002343B94FF0200383F31188BFF36F8FBFF34F8FFEE7002701F0F2F9FF
:4051C000A26BE36B9A4201D3022D21D12A4631462046FFF7A5FE636A6BB104F1240000F057FE88B14FF08052324B1A60BFF34F8FBFF36F8F08E038B14FF080522D4B1A6001
:40520000BFF34F8FBFF36F8F01F0EEF901204EE0019B1BB901F0E8F9002048E01FB902A800F07AFE012701F0DFF900F067FC01F0B9F994F844305BB2B3F1FF3F02D10023C7
:4052400084F8443094F845305BB2B3F1FF3F02D1002384F8453001F0C7F901A902A800F065FEF0B92046FFF73DFEA0B1019904F1100000F0D5FD2046FFF78EFE00F0CCFC7D
:4052800000289BD14FF080520A4B1A60BFF34F8FBFF36F8F92E72046FFF77EFE00F0BCFC8CE72046FFF778FE00F0B6FC002005B0F0BD00BF04ED00E02DE9F84340B94FF0BF
:4052C000200383F31188BFF36F8FBFF34F8FFEE7044619B9006C18B9012002E0012000E0002040B94FF0200383F31188BFF36F8FBFF34F8FFEE7022B03D1E06B012802D103
:4053000002E0012000E0002040B94FF0200383F31188BFF36F8FBFF34F8FFEE71F469046894601F051FAEFF311864FF0200383F31188BFF36F8FBFF34F8FA26BE36B9A4234
:4053400001D3022F1ED194F845506DB23A4649462046FFF7E5FDB5F1FF3F0DD1636A9BB104F1240000F094FD80B1B8F1000F0FD00120C8F800000CE06B1C5BB284F845301D
:40538000012006E0002004E0012002E0012000E0012086F31188BDE8F88300BF40B94FF0200383F31188BFF36F8FBFF34F8FFEE770B50446036C43B14FF0200383F31188FA
:4053C000BFF36F8FBFF34F8FFEE703681BB943681BB9012302E0012300E0002343B94FF0200383F31188BFF36F8FBFF34F8FFEE70E4601F0E9F9EFF311854FF0200383F394
:405400001188BFF36F8FBFF34F8FA26BE36B9A4218D294F845305BB20132A263B3F1FF3F0AD1636A83B104F1240000F031FD68B176B1012030600CE001335BB284F8453028
:40544000012006E0002004E0012002E0012000E0012085F3118870BDF0B585B0019240B94FF0200383F31188BFF36F8FBFF34F8FFEE7044619B9036C1BB9012302E0012339
:4054800000E0002343B94FF0200383F31188BFF36F8FBFF34F8FFEE70E4600F08FFD18B9019B1BB9012302E0012300E0002343B94FF0200383F31188BFF36F8FBFF34F8F6C
:4054C000FEE7002701F06EF8A56BC5B131462046FFF750FD013DA563236963B104F1100000F0D6FC38B14FF08052304B1A60BFF34F8FBFF36F8F01F077F8012053E0019B77
:405500001BB901F071F800204DE01FB902A800F003FD012701F068F800F0F0FA01F042F894F844305BB2B3F1FF3F02D1002384F8443094F845305BB2B3F1FF3F02D1002345
:4055400084F8453001F050F801A902A800F0EEFCF0B92046FFF7D6FCA0B1019904F1240000F05EFC2046FFF717FD00F055FB0028A8D14FF080520D4B1A60BFF34F8FBFF338
:405580006F8F9FE72046FFF707FD00F045FB99E72046FFF701FD00F03FFB2046FFF7B2FC00288FD0002005B0F0BD00BF04ED00E030B585B0019140B94FF0200383F311881A
:4055C000BFF36F8FBFF34F8FFEE70446036C43B14FF0200383F31188BFF36F8FBFF34F8FFEE700F0EBFC18B9019B1BB9012302E0012300E0002343B94FF0200383F3118891
:40560000BFF36F8FBFF34F8FFEE7002500F0CAFFA36BA3B1013BA363236963B104F1100000F036FC38B14FF08052304B1A60BFF34F8FBFF36F8F00F0D7FF012053E0019B17
:405640001BB900F0D1FF00204DE01DB902A800F063FC012500F0C8FF00F050FA00F0A2FF94F844305BB2B3F1FF3F02D1002384F8443094F845305BB2B3F1FF3F02D1002317
:4056800084F8453000F0B0FF01A902A800F04EFCF0B92046FFF736FCA0B1019904F1240000F0BEFB2046FFF777FC00F0B5FA0028ACD14FF080520D4B1A60BFF34F8FBFF3B0
:4056C0006F8FA3E72046FFF767FC00F0A5FA9DE72046FFF761FC00F09FFA2046FFF712FC002893D0002005B030BD00BF04ED00E000230BE0074A52F8332032B9054A42F857
:40570000331002EBC303586070470133092BF1D9704700BFC042030870B504460D46164600F040FF94F844305BB2B3F1FF3F02D1002384F8443094F845305BB2B3F1FF3F3D
:4057400002D1002384F8453000F04EFFA36B2BB93246294604F1240000F07CFB2046FFF71BFC70BD094B9B6A1B680BB9012300E0002323B14FF0FF32044BDA627047034B71
:405780009A6AD268D2685268DA627047CC78020810B50446006B01F073F8204601F070F810BD00BF2DE9F0478246894615469846089F099E0A9C9200A521206B01F072FD01
:4057C000236B05F18042013A03EB820525F00705002308E019F80310E21882F8341019F8032012B101330F2BF4D9002384F84330062F00D90627E762201DFFF735FB04F18B
:405800001800FFF731FB2461C7F10703A3616462002306E003F1100204EB8202002151600133042BF6D90023A36584F85C3042465146284600F08AFE206006B13460BDE8EF
:40584000F08700BF70B5002407E004EB8402930010481844FFF7FCFA0134062CF5D90E4C04F1BC063046FFF7F3FA04F1D0052846FFF7EEFA04F11400FFF7EAFA04F1E400A9
:40588000FFF7E6FA2046FFF7E3FAA662C4F8F85070BD00BFFC780208CC78020838B5044600F080FE264BD3F8FC200132C3F8FC20D3F800314BB9224BC3F80041D3F8FC30AE
:4058C000012B10D1FFF7BEFF0DE01D4BD3F804314BB91B4BD3F80031DA6AE36A9A4202D8174BC3F80041164AD2F808310133C2F80831E36AD2F80C21934202D9104AC2F8F6
:405900000C310F4D05F1300003EB83039A00211D1044FFF7ADFA00F067FED5F804316BB1D5F80031DA6AE36A9A4207D24FF08052044B1A60BFF34F8FBFF36F8F38BD00BFE6
:40594000CC78020804ED00E038B517E000F02AFE0D4CD4F8F030DD68281DFFF7AFFAD4F8FC30013BC4F8FC30D4F81031013BC4F8103100F039FE2846FFF70AFF024BD3F890
:405980001031002BE2D138BDCC78020808B5FFF7DBFF064B1B6B012BF9D94FF08052044B1A60BFF34F8FBFF36F8FF0E7CC78020804ED00E070B504460E46174BD3F81451BE
:4059C000D3F800010430FFF779FAB4F1FF3F07D136B11148D0F800110431FFF749FA70BD2C440D4BD3F800315C60A54208D90A4BD3F8F800D3F800110431FFF745FA70BDFC
:405A0000054DA86AD5F800110431FFF73DFAEB6A9C4200D2EC6270BDCC7802082DE9F04385B006460F4615469846900000F0F8FE60B18146602000F0F3FE044610B1C0F82A
:405A4000309004E0484600F01BFF00E000248CB10023039302940D9B01930C9B009343462A4639463046FFF79DFE2046FFF716FF012001E04FF0FF3005B0BDE8F08300BFF8
:405A800000B583B0194B019300230093802218491848FFF7C3FF012801D100F09BFB012814D14FF0200383F31188BFF36F8FBFF34F8F114B4FF0FF32DA620122C3F80421EA
:405AC0000022C3F8142100F00FFE0BE0B0F1FF3F08D14FF0200383F31188BFF36F8FBFF34F8FFEE703B05DF804FB00BFE8790208E8A508108D590810CC780208034AD2F825
:405B000018310133C2F81831704700BFCC780208014BD3F814017047CC7802082DE9F0413C4BD3F81831002B65D13A4BD3F814410134C3F81441CCB99B6A1B6843B14FF083
:405B4000200383F31188BFF36F8FBFF34F8FFEE7304B9A6AD3F8F8109962C3F8F820D3F820210132C3F82021FFF7FCFD294BDB6A9C4203D2002645E0012600E00026254B30
:405B80009B6A1B680BB9012300E0002323B14FF0FF32204BDA6235E01E4B9B6ADB68DD686B689C4202D21B4AD3622BE005F104084046FFF783F9AB6A1BB105F11800FFF773
:405BC0007DF9EB6A134AD2F80C21934202D9114AC2F80C310F4F07F1300003EB83039A0041461044FFF744F9EA6AD7F80031DB6A9A42C1D2C3E7074AD2F824310133C2F8D2
:405C000024310026034BD3F8283103B101263046BDE8F081CC780208394BD3F8183143B94FF0200383F31188BFF36F8FBFF34F8FFEE770B500F0B6FC314BD3F81821013A16
:405C4000C3F81821D3F81831002B52D12C4BD3F8FC303BBB00244FE0294D2B6ADC6804F11800FFF72BF9261D3046FFF727F9E36AD5F80C21934201D9C5F80C31204D05F17F
:405C8000300003EB83039A0031461044FFF7F0F8E26AD5F80031DB6A9A4204D30122C5F8282100E00024164B5B69002BD4D10CB1FFF758FD124BD3F8244164B1FFF72EFFCC
:405CC00018B101220E4BC3F82821013CF6D100220B4BC3F824210A4BD3F828315BB14FF08052084B1A60BFF34F8FBFF36F8F012402E0002400E0002400F076FC204670BD18
:405D0000CC78020804ED00E010B5B0B10446104BD3F8183143B14FF0200383F31188BFF36F8FBFF34F8FFEE7FFF7E8FE00212046FFF740FEFFF770FF00E0002038B94FF0AF
:405D40008052044B1A60BFF34F8FBFF36F8F10BDCC78020804ED00E0304BD3F8183123B101222E4BC3F82821704710B52B4B0022C3F82821D3F800311B6B1A68B2F1A53FB6
:405D80000BD15A68B2F1A53F07D19A68B2F1A53F03D1DB68B3F1A53F07D0204BD3F80001D3F800113431FAF707FD1C4BD3F80C310AE043B94FF0200383F31188BFF36F8F04
:405DC000BFF34F8FFEE7013B03EB83018A0013490A44126B002AECD008469900CC18A2000244546B64685463303019448A0008320244944206D1606803EB83018A0007496C
:405E00000A445063054903EB830082000A44526BD268C1F80021C1F80C3110BDCC78020840B94FF0200383F31188BFF36F8FBFF34F8FFEE710B50C46054BD3F800111831D5
:405E4000FFF722F801212046FFF7B4FD10BD00BFCC78020838B540B94FF0200383F31188BFF36F8FBFF34F8FFEE70C461546074AD2F800111831FEF7FBFF0DB14FF0FF344C
:405E800029462046FFF796FD38BD00BFCC78020838B5C368DC6844B94FF0200383F31188BFF36F8FBFF34F8FFEE704F118052846FFF704F8154BD3F81831ABB9251D284699
:405EC000FEF7FCFFE36A114AD2F80C21934202D90E4AC2F80C3103EB83039A0029460C481044FEF7C5FF03E029460A48FEF7C0FFE26A064BD3F80031DB6A9A4204D9012026
:405F0000024BC3F8280138BD002038BDCC780208FC780208E0780208034BD3F820210260D3F8143143607047CC780208F8B540B94FF0200383F31188BFF36F8FBFF34F8F2D
:405F4000FEE7054641B94FF0200383F31188BFF36F8FBFF34F8FFEE70C4600F023FB124BD3F814016968421A2368B3F1FF3F14D02F680D4ED6F82061B74201D088420ED291
:405F80009A4206D29B1A23602846FFF7C5FF002406E000232360012402E0002400E0012400F022FB2046F8BDCC7802080122024BC3F82821704700BFCC780208064BD3F823
:405FC00004312BB1044BD3F818311BB9022070470120704700207047CC78020838B505460C4600F0DFFA1B4BD3F800319B6D93B9184BD3F80031012283F85C205CB111469D
:406000002046FFF7D7FC4FF08052134B1A60BFF34F8FBFF36F8F00F0E7FA00F0C3FA0D4BD3F800319C6D5CB12DB10A4BD3F8003100229A6504E0074BD3F80031621E9A651F
:40604000044BD3F80031002283F85C2000F0CCFA204638BDCC78020804ED00E0F8B540B94FF0200383F31188BFF36F8FBFF34F8FFEE704460D4600F0A7FBEFF311864FF069
:40608000200383F31188BFF36F8FBFF34F8F94F85C30DBB2022284F85C20A26D0132A265012B38D1A36A43B14FF0200383F31188BFF36F8FBFF34F8FFEE7184BD3F8183121
:4060C000ABB9271D3846FEF7F9FEE36A134AD2F80C21934202D9114AC2F80C3103EB83039A0039460E481044FEF7C2FE04E004F118010C48FEF7BCFEE26A084BD3F800316F
:40610000DB6A9A4207D915B101232B6003E00122024BC3F8282186F31188F8BDCC780208FC780208E0780208064B1A681368B3FA83F35B09036013B9D36818687047002007
:40614000704700BFF879020808B54160006191420AD8D21A83699A4211D2011D0A4B5868FEF792FE002008BD9A4201D2994208D2011D054B1868FEF787FE002008BD0120B4
:4061800008BD012008BD00BFF879020870B500F009FA0E4B9B68B3B90C4C04F10C063046FEF756FE04F120052846FEF751FE2660656000220C210A20FEF770FFA06010B147
:4061C0000349FFF795FA00F00FFA70BDF8790208F0A5081000B583B0FFF7D8FF0D4B9B6853B10D4B019303230093002380220B490B48FFF713FC00E0002040B94FF02003FB
:4062000083F31188BFF36F8FBFF34F8FFEE703B05DF804FBF87902082C7A0208F8A50810B964081040B94FF0200383F31188BFF36F8FBFF34F8FFEE730B585B015460446C0
:40624000124A9068F0B11A46019102950394052913DCFFF7B3FE022807D10023089A01A90A488068FEF760FF0DE000231A4601A906488068FEF758FF05E0002301A9FFF702
:406280001BF800E0002005B030BD00BFF879020870B582B029E0DB681E68DC68251D2846FEF70CFE636A20469847E369012B1CD1A36933449E4207D2636024612946104B0E
:4062C0001868FEF7E1FD10E0002100910B4632462046FFF7A7FF40B94FF0200383F31188BFF36F8FBFF34F8FFEE7054B1B681A68002AD0D1024A51681160536002B070BD27
:40630000F879020838B50546FFF702FC0446074B9B6B984204D2FFF7BBFF01232B6001E000232B60014B9C63204638BDF879020870B582B005460E46134B1B68DB68DC68F7
:40634000201DFEF7BBFDE369012B18D1A1692B46324629442046FFF7F7FE80B1002100910B462A462046FFF75DFF40B94FF0200383F31188BFF36F8FBFF34F8FFEE7636A69
:406380002046984702B070BDF879020870B582B006460C46FFF7B2FB01A8FFF7B3FF019B1BBB054644B9B04206D3FFF735FC29463046FFF7BDFF1AE02CB10E4B5B681C689B
:4063C000B4FA84F464092246711B0A4B9868FFF7A3F9FFF721FC50B94FF08052064B1A60BFF34F8FBFF36F8F01E0FFF715FC02B070BD00BFF879020804ED00E030B587B009
:406400004DE0039B002B4ADB059C636913B1201DFEF754FD02A8FFF775FF039B092B3ED8DFE803F00505053D273A05053D270499A5690B46024629442046FFF785FE70B309
:40644000636A20469847E369012B28D1A269002100910B46049802442046FFF7E3FEF0B94FF0200383F31188BFF36F8FBFF34F8FFEE70499A16141B94FF0200383F3118823
:40648000BFF36F8FBFF34F8FFEE70346024601442046FFF759FE02E0204600F0F1F9002203A9044B9868FEF7D7FF0028A9D107B030BD00BFF879020800B583B001A8FFF71D
:4064C00033FE0199FFF762FFFFF798FFF6E700BF82B0002301930D4B1B68B3F1FF3F08D04FF0200383F31188BFF36F8FBFF34F8FFEE74FF0200383F31188BFF36F8FBFF36A
:406500004F8F019B002BFCD002B07047EC42020808480068006880F308884FF0000080F3148862B661B6BFF34F8FBFF36F8F00DF00BF000008ED00E0DFF80C00016841F475
:40654000700101607047000088ED00E04FF0807340F8043C21F0010140F8081C054B40F80C3C40F8202C6FF0020340F8243C4438704700BFD1640810000000000000000095
:40658000074B19680868B0E8F04F80F30988BFF36F8F4FF0000080F311887047AFF30080CC7902084FF0200383F31188BFF36F8FBFF34F8F0A4A136801331360012B0DD169
:4065C000084B1B6813F0FF0F08D04FF0200383F31188BFF36F8FBFF34F8FFEE7704700BFEC42020804ED00E0094B1B6843B94FF0200383F31188BFF36F8FBFF34F8FFEE75E
:40660000013B034A13600BB983F31188704700BFEC420208000000000000000000000000EFF30980BFF36F8F154B1A681EF0100F08BF20ED108A20E9F04F10602DE909006E
:406640004FF0200080F31188BFF34F8FBFF36F8FFFF782FB4FF0000080F3118809BC19680868B0E8F04F1EF0100F08BFB0EC108A80F30988BFF36F8F704700BFAFF30080AE
:40668000CC79020808B54FF0200383F31188BFF36F8FBFF34F8FFFF741FA18B14FF08052024B1A60002383F3118808BD04ED00E0084A0023136008490B60084B1B680849B8
:4066C000A1FB03139B09013B06490B6007231360704700BF10E000E018E000E098420208D34D621014E000E010B582B0314B1A78D2B20192FF221A701B78DBB28DF80330AA
:406700009DF803302C4A03F0200313700723536009E0294A5368013B53609DF803305B00DBB28DF803309DF8033013F0800FF0D1214B5B68C3F10702032A08D04FF02003C9
:4067400083F31188BFF36F8FBFF34F8FFEE7032A08D04FF0200383F31188BFF36F8FBFF34F8FFEE71B0203F4E063134A5360019BDBB2104A1370114B1A6842F47F021A60CE
:406780001A6842F07F421A60FFF792FF00240C4B1C60FFF7D1FE0B4A136843F040431360FFF7B6FEFFF7D8FAFFF792FE204602B010BD00BF00E400E0347A020820ED00E0A9
:4067C000EC42020834EF00E0EFF305830F2B0FD9104A9B5CDBB2104A1278934208D24FF0200383F31188BFF36F8FBFF34F8FFEE70A4B1B6803F4E063074A5268934208D9F8
:406800004FF0200383F31188BFF36F8FBFF34F8FFEE77047F0E300E0347A02080CED00E038B5044610F0070F02D020F007040834FFF764F9104B1B682BB90F4A02F10C03E1
:4068400023F0070313600D4BD3F85C351C444BF6F772944208D8A34208D2074A15681D44064BC3F85C4502E0002500E00025FFF7D3F9284638BD00BF3C7A0208E4340308A6
:4068800040B14FF0200383F31188BFF36F8FBFF34F8FFEE7704700BF70B539B900240AE015F8010BFAF7C4F8013402E016460D460024B442F4DB204670BD00BF70B561B9B0
:4068C00000240FE0FAF7C0F8C0B2287001340A2808D00D2806D0013502E016460D460024B442EFDB204670BD08B5084B1B783BB9074A01210748FDF787F90122034B1A7082
:40690000044B02229A609A6108BD00BF443A030800A608100000394008B518B1094AD062002000E0084858B9084B1B782BB90548FDF7A8FA0122054B1A7008B9FDF7CCFA1A
:4069400008BD00BFF042020801001600453A0308014670B582890569CB8980884FF47A76584306FB00F42888B2FBF0F0B4FBF0F00C7E4B886043B0FBF3F00B884343B3FB91
:40698000F6F35A43044BB2FBF3F3012213B15B085200FBE72A8070BD00E1F505014643888A88007EC3EB03435043B3FBF0F00B698A891B88B2FBF3F3104A4343B3FBF2F358
:4069C000CA8853430A22B3FBF2F38A6846F2A710824294BF6422C8221020934205D90138C0B206284FEA5303F7D149694B2253436422B3FBF2F30B80704700BFA08601007F
:406A000003B10B880088800080B2824238BF02469A4238BF1A4692B25308FF2B0A804FEAD2028CBFFF23DBB2FF2A8B70CB7086BFFF230B710A7170478B0813800F23C908A8
:406A40009372002351809080D0801081D3727047937A30B5948890805B00041BDBB24ABF013393729372957A538848BF644205F00F05A342957203D9012B03D9013B00E038
:406A8000013353800F2D04D01DB15388B4EB830F04D90023D0801081D37230BDD488844201D9D08003E01489844238BF1081D07A092802D80130D07230BD1089D488001BF3
:406AC00080B2834204D9B3EB910F03D9013B00E0013353805388138030BD000081F0004102E000BF83F0004330B54FEA41044FEA430594EA050F08BF90EA020F1FBF54EA3D
:406B0000000C55EA020C7FEA645C7FEA655C00F0E2804FEA5454D4EB5555B8BF6D420CDD2C4480EA020281EA030382EA000083EA010180EA020281EA0303362D88BF30BD5E
:406B400011F0004F4FEA01314FF4801C4CEA113102D0404261EB410113F0004F4FEA03334CEA133302D0524263EB430394EA050F00F0A780A4F10104D5F1200E0DDB02FACF
:406B80000EFC22FA05F2801841F1000103FA0EF2801843FA05F359410EE0A5F120050EF1200E012A03FA0EFC28BF4CF0020C43FA05F3C01851EBE37101F0004507D54FF062
:406BC000000EDCF1000C7EEB00006EEB0101B1F5801F1BD3B1F5001F0CD349085FEA30004FEA3C0C04F101044FEA445212F5800F80F09A80BCF1004F08BF5FEA500C50F136
:406C0000000041EB045141EA050130BD5FEA4C0C404141EB010111F4801FA4F10104E9D191F0000F04BF01460020B1FA81F308BF2033A3F10B03B3F120020CDA0C3208DD09
:406C400002F1140CC2F10C0201FA0CF021FA02F10CE002F11402D8BFC2F1200C01FA02F120FA0CFCDCBF41EA0C019040E41AA2BF01EB0451294330BD6FEA04041F3C1CDA72
:406C80000C340EDC04F11404C4F1200220FA04F001FA02F340EA030021FA04F345EA030130BDC4F10C04C4F1200220FA02F001FA04F340EA0300294630BD21FA04F02946C8
:406CC00030BD94F0000F83F4801306BF81F480110134013D4EE77FEA645C18BF7FEA655C29D094EA050F08BF90EA020F05D054EA000C04BF1946104630BD91EA030F1EBFA2
:406D00000021002030BD5FEA545C05D14000494128BF41F0004130BD14F580043CBF01F5801130BD01F0004545F0FE4141F470014FF0000030BD7FEA645C1ABF1946104617
:406D40007FEA655C1CBF0B46024650EA013406BF52EA033591EA030F41F4002130BD00BF90F0000F04BF0021704730B54FF4806404F132044FF000054FF0000150E700BF63
:406D800090F0000F04BF0021704730B54FF4806404F1320410F0004548BF40424FF000013EE700BF42004FEAE2014FEA31014FEA02701FBF12F07F4393F07F4F81F06051F7
:406DC000704792F0000F14BF93F07F4F704730B54FF4607401F0004521F0004120E700BF50EA010208BF704730B54FF000050AE050EA010208BF704730B511F0004502D59B
:406E0000404261EB41014FF4806404F132045FEA915C3FF4DCAE4FF003025FEADC0C18BF03325FEADC0C18BF033202EBDC02C2F1200300FA03FC20FA02F001FA03FE40EA73
:406E40000E0021FA02F11444C1E600BF70B54FF0FF0C4CF4E06C1CEA11541DBF1CEA135594EA0C0F95EA0C0F00F0DEF82C4481EA030621EA4C5123EA4C5350EA013518BF10
:406E800052EA033541F4801143F4801338D0A0FB02CE4FF00005E1FB02E506F00042E0FB03E54FF00006E1FB03569CF0000F18BF4EF0010EA4F1FF04B6F5007F64F5407451
:406EC00004D25FEA4E0E6D4146EB060642EAC62141EA55514FEAC52040EA5E504FEACE2EB4F1FD0C88BFBCF5E06F1ED8BEF1004F08BF5FEA500E50F1000041EB045170BDD7
:406F000006F0004646EA010140EA020081EA0301B4EB5C04C2BFD4EB0C0541EA045170BD41F480114FF0000E013C00F3AB8014F1360FDEBF002001F0004170BDC4F10004BE
:406F4000203C35DA0C341BDC04F11404C4F1200500FA05F320FA04F001FA05F240EA020001F0004221F0004110EBD37021FA04F642EB06015EEA430E08BF20EAD37070BD84
:406F8000C4F10C04C4F1200500FA04F320FA05F001FA04F240EA020001F0004110EBD37041F100015EEA430E08BF20EAD37070BDC4F1200500FA05F24EEA020E20FA04F374
:406FC00001FA05F243EA020321FA04F001F0004121FA04F220EA020000EBD3705EEA430E08BF20EAD37070BD94F0000F0FD101F00046400041EB010111F4801F08BF013C47
:40700000F7D041EA060195F0000F18BF704703F00046520043EB030313F4801F08BF013DF7D043EA0603704794EA0C0F0CEA135518BF95EA0C0F0CD050EA410618BF52EA3F
:407040004306D1D181EA030101F000414FF0000070BD50EA410606BF1046194652EA430619D094EA0C0F02D150EA013613D195EA0C0F05D152EA03361CBF104619460AD19E
:4070800081EA030101F0004141F0FE4141F470014FF0000070BD41F0FE4141F4780170BD70B54FF0FF0C4CF4E06C1CEA11541DBF1CEA135594EA0C0F95EA0C0F00F0A7F8F0
:4070C000A4EB050481EA030E52EA03354FEA013100F088804FEA03334FF0805545EA131343EA12634FEA022245EA111545EA10654FEA00260EF000419D4208BF964244F184
:40710000FD0404F5407402D25B084FEA3202B61A65EB03055B084FEA32024FF480104FF4002CB6EB020E75EB030E22BFB61A754640EA0C005B084FEA3202B6EB020E75EB1E
:40714000030E22BFB61A754640EA5C005B084FEA3202B6EB020E75EB030E22BFB61A754640EA9C005B084FEA3202B6EB020E75EB030E22BFB61A754640EADC0055EA060E31
:4071800018D04FEA051545EA16754FEA06164FEAC30343EA52734FEAC2025FEA1C1CC0D111F4801F0BD141EA00014FF000004FF0004CB6E711F4801F04BF01430020B4F102
:4071C000FD0C88BFBCF5E06F3FF6AFAEB5EB030C04BFB6EB020C5FEA500C50F1000041EB045170BD0EF0004E4EEA113114EB5C04C2BFD4EB0C0541EA045170BD41F480110F
:407200004FF0000E013C90E645EA060E8DE60CEA135594EA0C0F08BF95EA0C0F3FF43BAF94EA0C0F0AD150EA01347FF434AF95EA0C0F7FF425AF104619462CE795EA0C0FA7
