:020000041000EA
:4000000000400208230100100D00000085010010000000000000000000000000000000000000000000000000000000008101001000000000000000008101001081010010E9
:400040008101001081010010810100108101001081010010810100108101001081010010810100108101001081010010810100108101001081010010810100108101001060
:400080008101001081010010810100108101001081010010810100108101001081010010810100108101001081010010810100108101001081010010810100108101001020
:4000C00010B5064C2378002B07D1054B002B02D0044800E000BF0123237010BDAC150008000000007C9B0010084B10B5002B03D00749084800E000BF07480368002B00D194
:4001000010BD064B002BFBD09847F9E700000000B01500087C9B0010EC020008000000007047FFF7FDFF72B60F4C104DAC4209DA21686268A368043B02DBC858D050FAE70D
:400140000C34F3E70A490B4A0020521A02DD043A8850FCDC084809490860BFF34F8F00F011F900F01DF8FEE760EE011078EE0110AC150008482300080000000808ED00E0F7
:40018000FEE7FEE700B504207146084202D0EFF3098001E0EFF30880043002F0C1FDFEE710B562B6002003F0A5FD03F071FD044805F0B4FF034800F06BF909F0C3FDFCE728
:4001C000F08600100000081010B5002000F0FCFF10BDC04670B56249E0239B00CB580F2213401A00D0329200525807210A40032A05D0042A06D0002A12D15A4814E05A4A92
:40020000106811E01A00C0329200554952581F210A40112A06D0132A04D0FA20C00103E0524801E080200002002B36D14C4BB222D2009A5801211140B125ED005A59120F7D
:40024000032422405B591B0F1C4207D0444C63591B0F03242340012B02D102E0012300E00023002B01D0002901D1032A4BD13C4BB022D2009D58AD03AD0B3D495958C9040E
:40028000C90C9C58240E01231C40013403F048FD6843210003F044FD35E0012B33D1304BC822D2009A5801251540C024E4001A59120F03210A401B591B0F194207D0284962
:4002C0000B591B0F03210B40012B02D102E0012300E00023002B01D0002D01D1032A12D11F4DC022D200AB587F210B40A958090A1F263140AC58240C3440584303F010FDD3
:40030000210003F00DFDE0239B00154AD3581B0903221340D840144C6060164B1D692D0AFC32154001351969090E013103F0F8FCA060290003F0F4FC0500E06020610E4BEF
:40034000C0180E4903F0ECFC20750D4BE818FA21890003F0E5FCA061C003E06170BDC0460000264000127A00C000000800366E0184050000000021403F420F0040420F006C
:40038000E703000010B5284802F09AFD274CB022D200A3585B005B08A350E0218900635830208343635080235B04A350204A214BE250A02292010433E250FF221E4BE2504D
:4003C00001F010FAC0225200A35801218B43A35000F01AFAFFF7FEFEB0235B055B78002B04D0B0235B055B78DBB200E02123212B03D1124B0022DA605A60114C220080218B
:40040000042000F029FC2000103000F003FD0D4B1A685123D35C002B02D00B4800F070FD01F0E0FE10BDC046948C00100000264001000200840500008C050000E000234071
:40044000C815000808230008FC8600108023024AD3580320184070470000214010B502F0F0FC084980228C58074B2340074C23438B508823034AD358DB06FAD502F0E5FCBC
:4004800010BDC04600002140FCFF00000100FA0570B50500830504D0E821FF310F4802F009FC02F0CEFC0400FFF7D0FF032801D1FFF7D4FF0A4AB0239B00D5508021505885
:4004C000084B03400848034353508823044AD358DB06FAD5200002F0B8FC70BD3087001000002140FCFF00000300FA0510B504002100034801F0B6F90028F9D010BDC046A8
:4005000000006640C2239B00034AD358DB05F9D0D0239B00D058704700006640FEE7C0460323064A1360064A136080225201054B1A60054A054B1A607047C046082031409C
:40054000102031409402364001001180000E1F4130B587B09C49A022D2008B58032083438B509A4A116808688823CB58C31818689749084018601368186884241B59C0180D
:4005800003681B021B0A0360106805680359EB1818680140196013683E229A5C002A06D08948E02189004258753CA24342503E229A5C002A06D08448E02189004258302425
:4005C000A24342503E229B5C002B07D07E49E02292008B588020000603438B500021012000F056FE0021022000F052FE0021032000F04EFE0021042000F04AFE00210020DF
:4006000000F046FE01A8734903000A0032CA32C312CA12C300F090FE002802D00420FFF77DFF69496C4A8B588020000603438B506A4800F03DFF002802D00420FFF76EFFF3
:40064000614C674BE158674A0A40E250E158664A0A40E250E25880252D062A43E250043BE158624A0A40E250E158614A0A40802149010A43E250E258802109020A43E25002
:400680005C4A11685C4B0B40802149000B431360002002F0DDFB594BE2581543E550E158012291430A43E2503021002002F050FB464B1B683F229A5C052A06D970229A5CCB
:4006C00002210A404E49986842509A6874215B5AD21891683E4B0B40CC2189010B4393603A4B1B6873229A5C0321914070229A5C7220185C140084402143022002400A43A6
:40070000802109060A438021C900986842509A6852583F229A5C1C2A07D970229A5C01210A40C7210901986842509A6874215B5AD2185168264B0B40BC2189010B4353600C
:40074000224B1B6873229A5C0321914070229A5C7220185C140084402143012002400A43802109060A438021C900986842509A6852583F229A5C332A03D90021214A9868CE
:4007800081509A6874215B5AD2181168104B0B40FE2109020B4313600C4B1A687323D15C703B8B4019007023D35C7220105C83400B43802109060B438021C9009068435039
:4007C00093685B5807B030BD0000264008230008FF00FFFF60870010087F0000400D030004050000FEFCFFFFFFFF00FFFFF0FFFFFF8FFFFF00002740FFFCFFFF0C0500005B
:40080000140C0000CC0C000070B58AB09621002002F09EFA02F074FA002814D102F060FAC0235B00454AD358DB0705D41100444A8B585B005B088B504049414A8B588020E2
:40084000000603438B50012002F0C0F93D4A516C3D4B0B40E82189010B435364536C1B0AFF2213403A2B07D1364A516C374B0B40E82189010B435364FFF76AFE01AC344D13
:4008800022002B00143343CB43C243CB43C243CB43C221002F4801F0B1FD22002B00383343CB43C243CB43C243CB43C221002A4801F0A4FD22002B005C3323CB23C223CB81
:4008C00023C223CB23C22100244801F097FD244D23002A0043CA43C343CA43C343CA43C32100204801F08AFD24220021200004F097FF8623019321001B4801F07FFD2200D5
:400900002B00243343CB43C243CB43C243CB43C22100164801F072FD22002B00483323CB23C223CB23C223CB23C22100104801F065FDFFF7F5FD0AB070BDC04600002640D5
:400940000C05000000002740FF00FFFFFFC5FFDF60870010000032408000324080023240E08700100003324080033240000432408005324070B505000C001A4B1B6828225B
:400980009A5C012A15D1820807211000884327D19200AD1AED00FF20A8401B6820339A181168AC4023004B40184004004C40146016E03A229B5EDBB2994203D176210A48F7
:4009C00002F078F9074B1B681B68072215408022120615438022920194466444A400E55070BDC046082300084C88001070B504000D000B4B9A680B4B9A420CD1002904D137
:400A00003821FF31084802F055F91034054BA400E058E55003E01034A400044BE05870BD00ED00E0000000084C88001000000010F0B5474680B482B0061E01914AD043689D
:400A4000032B03D93221264802F034F90023F05E002804DBB178FFF78DFF002400E0214C0023F15E7368002912DB88081E4FC0308000C55903221140C900FC3290468A40FD
:400A800095439A01434613408B402B43C35116E089B20F220A40083A92080632920013481018476803221140C900FF252A008A4097439A012B0013408B403B4343600B4B8A
:400AC0009A680B4B9A4206D10023F05E0199FFF78DFF00E0034C200002B004BC9046F0BD4C8800100100560000E100E000ED00E00000000870B504000D000A4B1A68B42365
:400B0000D3581B181B68002B0ADA0B0C03D00649064802F0CFF82D042D0C6560002000E0034870BD08230008D50200009088001001008A0070B505000C000368002B01DA7A
:400B4000002300E0084B002B0BD1EA60230C03D00649074802F0AEF82404240CAC60002000E0014870BDC04601008A00BB0200009088001070B505000C1E03D19921084814
:400B800002F098F8074B1A68B423D3585B191B68002B03DAEB682360002000E0024870BDD08800100823000801008A0070B504000D00234B1A683123D35C834236D90029C5
:400BC00036D00B68DB0635D13123D35C984204D3C421FF311B4802F06DF8194B1B681A6AB0215B5A5C431419174E34602B68DA080021686804F014FE00212000FFF77AFFC0
:400C00003468002D03D111490E4802F053F82A0000212000FFF78EFF00280DD10A4B18680021FFF767FF002808D108E0084806E0074804E0064802E0064800E0054870BDBA
:400C40000823000890880010581700089303000003018A0001018A0010B50400002A17D1002915D1124B1A683123D35C984204D3C421FF310F4802F01DF80D4B1B681A6A23
:400C8000B0215B5A5C4314190B4B1C6000200EE0002A09D0002909D0074B59609A60191D2000FFF783FF02E0044800E0034810BD08230008908800105817000803018A00A4
:400CC000F0B583B00D001C4B1B68DC68236883422DD947097B01C01A012383401E00002903D102F0AEF8019001E000230193124B18680368002B01DA002300E00F4B002B4C
:400D00000ED16368BF00DF193B68334203D133433B60002400E00A4C0021FFF7EBFE00E0084C002D04D1019802F08FF800E0064C200003B0F0BDC0465817000801008A00F9
:400D4000020188000301880004018A00F0B583B00D001C4B1B68DC68236883422DD947097B01C01A012383401E00002903D102F068F8019001E000230193124B18680368F9
:400D8000002B01DA002300E00F4B002B0ED16368BF00DF193B68334203D0B3433B60002400E00A4C0021FFF7A5FE00E0084C002D04D1019802F049F800E0064C200003B0AD
:400DC000F0BDC0465817000801008A00020188000301880004018A000A4B1B68DA68136883420BD943095901401A0121814052689B009B580B4203D0034802E0034800E0B7
:400E000003487047581700080101880004018A0000018800034B1B68002B01D1014B18607047C04664170008F0B5474680B404000F0090461E002D4B1B68002B03D1B52188
:400E40002B4801F037FF294B1B682C2060431C18FF22150035402560330A13406360360CA660244B1A683123D35C9D4204D3C421FF31214801F01EFF1E4B1A68B023D35A52
:400E80006B43116A8C466344236166683223D35C9E4204D3E021FF31174801F00BFF154B1B681D6A80367601AD196561A668330C04D0FF214900104801F0FCFE330C03D076
:400EC0000E490D4801F0F6FE3604330C1E43AE604346E36127620023A361069B002B02D000229B5EA38104BC9046F0BD64170008108900100823000890880010FF01000055
:400F0000F0B58FB0041E03D15221294801F0D2FE6368032B03D95421254801F0CBFEE36A002B03D15821224801F0C4FE236B002B03D159211E4801F0BDFE07AA13002100E1
:400F400061C961C321C921C302AD290023001433C1CBC1C141CB41C10821535E0CAE3380144B1B6836215B5E07998C466344B370089B0D930B9B0A980096A26AE16AFFF714
:400F800053FF2B69E868002200920021FFF74CFF216B3000FFF74CFD0023F25E002A05DB1F231A401E3B9340034A13600FB0F0BD108900100823000800E100E0F8B505002A
:400FC0000F0016001C00002A03D1FD21224801F071FE224B1B68002B03D1FE211E4801F069FE1E4B1B682C2128004843181879435918012213004D68AB401B044568AA4029
:4010000015000269002A20D08F69002F1FD11268002A01DA002200E0114A002A19D132681204120C134333600369DE6001238B614C6204692B0C03D00A490B4801F03AFEAA
:401040002A04120CA260002004E0084802E0084800E00748F8BDC046108900106417000801008A00BB0200009088001004028A0007028A0070B504000D0016000F4B1B68CA
:40108000002B04D1AF2149000D4801F013FE0B4B1B682C2060431C18236A002B04D1B1214900074801F006FEE369B34204D9236AB6009D51002000E0024870BD641700088F
:4010C000108900100A028A0070B505000C00084B1B68002B04D1C8214900064801F0EAFD034B1B682C2068431818846270BDC046641700081089001070B582B00400002392
:401100000193002804D1D221FF312D4801F0D2FD2369002B04D1E9214900294801F0CAFD6369002B04D1D421FF31254801F0C2FD236A002B04D1EA214900214801F0BAFDBE
:401140006269D5682B0C24D01B041360136820691C4B1A68B423D358C3181B68002B18DA01A9FFF707FD00280ED1019803681E0CFF221340E269934207D29B00226AD358A8
:40118000002B02D0984700E0002631002069FFF7B1FC2D042D0C0FD063691D601B68636A002B03D098470023636203E0A36A002B00D098470023A36163691B6802B070BD2A
:4011C000108900100823000810B50400084B1B68002B04D1B221FF31064801F06BFD044B1B682C2060431818FFF786FF10BDC046641700081089001010B504000E4B1B68BA
:40120000002B03D10D490E4801F054FD0A4B1B682C20604318180C23C25E002A0ADB1F231A401E3B9340802206498B50BFF34F8FBFF36F8F002010BD641700082B020000FB
:401240001089001000E100E010B504000C4B1B68002B03D10B490C4801F02CFD084B1B682C20604318180C23C25E002A05DB1F231A401E3B9340054A1360002010BDC046D5
:40128000641700084B0200001089001000E100E0134B1A683C23D35C83421DD9042904D94B1EFF3B9BB2132B18D8FF290CD91F2319400C4A0300C0339B009950D0308000AB
:4012C0000423835000200AE007231940D0308000044BC150002002E0034800E002487047082300080000264001004A0010B504000E4B1A683C23D35C834204D8A121490097
:401300000B4801F0D7FC2300D0339B00094A985807231840042807D1C034A400A3581B30184080235B00184310BDC04608230008508900100000264070B5041E03D14A497A
:401340004A4801F0B7FCB023DB00494AD358002B00DA87E0474B22689A4203D94649434801F0A8FC23689B039B0BE279002A02D08022520400E000221343B022D2003C493D
:401380008B50A2883D4B9A4204D98C218900374801F090FC22893A4B9A4203D93949334801F088FCA388DB04D90C23891B04364A13400B43354A2E498B50A37A0F2B04D97B
:4013C0008E218900294801F075FCE37A0F2B03D92F49264801F06EFCA289284B9A4203D92C49224801F066FCA37A0F211940E27A1201FF2313400B43A289120226490A40D6
:401400001343A27B1207C02189050A401343B122D20017498B50A379042B03D91F49134801F048FC228A164B9A4204D9912189000E4801F03FFC0E4819494558194B1D4079
:40144000A3791B02E022D20013402B4343504558154B1D40238A1B040B4A13402B434350002000E0114870BD1F0200005089001000002640FFFF030029020000FF1F0000FC
:40148000FF010000310200000000FF0184050000390200003A02000000FF1F00430200008C050000FFF8FFFFFFFF00FE03004A0070B505003149324A8B58802000060343D8
:4014C0008B502C0003E0012001F0E8FB013CB223DB002A4AD3585B0701D4002CF3D12749B122D2008858274B03408020800503438B50002D01D0002C0CD02049B022D20057
:401500008B588020000603438B5003E0012001F0C5FB013CB223DB00184AD358DB0701D4002CF3D1002D01D0002C08D01349B122D2008B58C020800503438B5013E00F4B72
:40154000B121C90058580F4A02408020800502435A5008395A58520052085A5008495A58520052085A50002D03D0002C03D0002002E0002000E0044870BDC04600002640E9
:401580008C050000FFFFFFCF02004A00F0B5564CA04200D9A2E0A24200D9A1E0534B994200D99FE00124524B1C70FF2805D80F2505400E340F26072321E04E4B984205D832
:4015C0000F2303400F240026002518E0040A0F2323401D00484B984208D80001FF2318402B000343FF240026002508E00402F020000120402B000343404C00260025FF2AC9
:401600000DD81201FF2002401543E020C0021843F0231E43F0231B0323439C4625E03548824207D81004F022120310401843224394461AE0100A0004F0273F033840184361
:401640002D4B9A4209D81205F0231B0413401843FF231B0423439C4607E01206F0231B051A401043264B23439C46264B1A68176AB023D45AE200131BFB181B68002BF4DA09
:401680001B4B5B78002B04D01F4B204AD358002B18DA1F4A1F4B1A601F4A204B1A601B4AA324E4001359B3431D4315511C4C13596546AB43184310510D4B5960124BD1504B
:4016C000002000E017480F4B1A68146AB023D15ACA00531AE31800225A6004E0114802E0104800E00F48F0BD0F060000FFFFFF0068170008FF040000FF0500000F0F00000C
:4017000000000F0F082300081C050000000026401F1F0000080126403D3D0000040126401405000001004A0070B50022264B1A70264B1C68226AB023E55AEC00631BD318B1
:401740001C68002CF4DA224A1468224A944206D1214A1468214A944203D0002502E0002500E00125A422D2001D4CA4582402240A00225A60002D24D0002C23D000280FD148
:40178000114B58680A000023002102F05FFC6208002380185941220002F038FC040011E00A0000232000002102F050FC064B5A685408002500196941002302F027FC040037
:4017C00000E00024200070BD6817000808230008080126401F1F0000040126403D3D0000000026400749C02252008B589B009B088020C00503438B508B58802000060343EC
:401800008B5070470000264030B5C0239B00C3580F242340072B07D900230FE0D024A4000459CC54013300E000239342F6D307E05C00D025AD0045590D5301339342F7D3D8
:4018400030BDC04610B51400C2239B00C358DB05DB0D9A4200D31C002200FFF7D5FF200010BDC04603681B0501D5802200E0402282239B00C358DB05DB0D934204D09023CB
:401880009B00C150012000E00020704730B580239B00C3580F242340072B07D900230FE0CD5C9024A4000551013300E000239342F6D307E05C00655A9024A400055101331C
:4018C0009342F7D330BDC04610B5140003681B0501D5802200E0402282239B00C358DB05DB0DD31AA34200D81C002200FFF7CEFF200010BDF8B54F464646C0B405000C002A
:4019000003681B0501D5802700E0402780239B00EB580F261E40A26A012A1BD9636A9946E262531E98464B46002B02D04346002B03D12649264801F0BDF942464946280001
:40194000FFF7C2FFA36A1B1AA362072E00D940004844606282239B00EB58DB05DB0D9F422FD0A36A012B2CD10023A362072E02D8636A1E7801E0636A1E8801F062FA90237E
:401980009B00EE50F8231B018027BF00EF50EB5801F05BFA0F4BEB580F4E1E403E430F4A134203D00E490F4801F084F9094BEE502268022313432360236B002B01D00120AE
:4019C00098470CBC90469946F8BDC04673050000D8890010880F0000FEFDFFFF8CF8FFFF36040000188A0010F0B5474680B405000C0003681B0501D5802600E040267608A7
:401A0000A769E3699846002F01D0002B04D19921C900324801F04EF9424639002800FFF711FF236A1B182362E3691B1AE3612ED1A368002B1ED0E3689E4201D8013E00E0F8
:401A40005E1E2B681B0501D5802300E040239E4204D3A3218900224801F02CF9C1229200AB58FF218B430E401E43AE5001221D4BEA5002E000221B4BEA50636801229343B7
:401A80006360236B002B25D00420984722E0A169C0229200AA580F273A40072A00D940000818A0619E4215D95C1E2B681B0501D5802300E040239C4204D3A321890008480C
:401AC00001F0F8F8C12189006A58FF239A43234013436B5004BC9046F0BDC046D8890010188A0010C80F0000F8B505000C001600002800D1BDE1002900D1BCE10B78022B70
:401B000003D93F21C14801F0D5F8637B023BDBB2062B03D94021BD4801F0CCF8A37B002B07D0022B05D0032B03D04121B74801F0C1F82123E35C012B03D94221B34801F0CA
:401B4000B9F82823E35C012B03D94321AF4801F0B1F82378012B06D86268083A082393429B415B4208E0A37F002B05D063685A1E062393429B415B42002B03D04521A348F0
:401B800001F098F8A368053B042B03D946219F4801F090F86369FF2B03D947219B4801F089F8A369FF2B03D94821984801F082F8A37C002B0FD02378002B07D1A368092B2C
:401BC00006D1A37B002B05D0012304E0012302E0012300E00023002B03D04A218B4801F069F88B4B626B1A4203D04C21874801F061F8884BE26B1A4203D04D21834801F05C
:401C000059F82378022B02D1A37F002B02D063685A1E00E00022237F002B02D08021490200E00021A368082B02D880231B0100E0002319430F2313400B4380229204134331
:401C40002B60226B2B681B0501D5802300E040239A4203D362216D4801F02CF8A26B2B681B0501D5802300E040239A4203D36321664801F01FF8626A2B681B0501D580237E
:401C800000E040239A4203D36421604801F012F823781B06C022920413402B64637F002B01D0402200E00022A37C002B02D08023DB0000E000231A43237C002B02D0802178
:401CC000490000E000210A43637C002B02D08021890000E000210A43E36A013B1B04F020000303401343627B013A07210A4013431900A27B120130231A400B001343AB645F
:401D0000237B002B02D08022520000E00022E37B002B04D12378022B03D1013B02E0012300E00023002B02D080239B0000E000231343A268013A0F273A401343C022920080
:401D40009446AB50FF2260691040A3691A04FF2109040A400243C4239B00EA50E26A6346EB583B4003339A4201D3102A03D97A21264800F09FFFE37F002B04D02378012B44
:401D800003D0002302E0002300E00123002B02D08020400000E00020627B013A0723134001001943A27B120130231A400B0013436B64237B002B02D08021490000E00021C2
:401DC000A3685A1E0F2313400B432278012A02D18022520200E00022134380229200AB50FF23226B1340C1229200AB502023E35C002B02D08022920400E000222123E35CCA
:401E0000012B09D180235B0407E0C0465C8A001092F4FFFF8CF8FFFF002313432822A25C012A02D18022520200E000221343FF21626A0A4013432B65A36B0B4081229200FA
:401E4000AB500F4B626B13400E4AAB50E26B0E4B13400E4AAB50002E0FD0002373603360B360F3603362F3623363094B7363002004E0084802E0074800E00020F8BDC04668
:401E80006D0B0000C80F000073070000880F0000EFCDAB000160AA000B694A69934202D34869181A03E0CA684869101A18187047F0B5474680B407000D0003681B0501D5EA
:401EC000802300E040235B089846C2239B00FE58F605F60D2C6929E00134EB689C4200D100246B699C4211D12B6B002B01D0082098476B699C4209D10022204BFA50002C32
:401F000001D0013C14E0EB685C1E11E0D0239B00F958403BFB580F221340072B02D8AB68195502E06300AA68D152013E002ED3D12C61EC6829003800FFF7AEFF201A8045B4
:401F400019D9002801D0441E00E000243B681B0501D5802300E040239C4204D3A3218900074800F0A7FEC1229200BB58FF20834320401843B85004BC9046F0BDC80F000061
:401F8000188A001070B504000D00E0231B01C3581B0736D5364BC258C8239B0013400BD04A681A434A60FC221201835083580B6B002B01D0102098472D4BE3581B0508D5BA
:401FC0006B688022120113436B60FC231B01E250E358274BE358DB0713D5EB69002B04D029002000FFF700FD06E0AB68002B03D029002000FFF75CFFFC231B010122E25069
:40200000E358E0231B01E3585B072FD5194BE258A023DB0013400BD02A681A432A60F8221201A350A3582B6B002B01D020209847104BE358DB0708D529002000FFF75AFC0C
:40204000F8231B010122E250E3580A4BE3589B050CD50022084BE2502B6801218B432B60EA622B6B002B01D00220984770BDC046CC0F00008C0F0000880F0000C00543426A
:402080005841C0B27047C046214B984230D00ED8402831D004D800281FD010282AD031E080282BD080235B00984229D02AE0194B984229D007D8A0231B0698420DD0164BFD
:4020C000984212D01EE0154B98420AD0144B984209D0144B984215D101E0002016E0124814E0124812E0124810E0A020C0030DE007480BE00F4809E00F4807E00F4805E0A2
:40210000034803E00E4801E0A420C0037047C04606005200010000F0090000A0040000F0050000F0030000F001005200020052000300520001005000020050000500520032
:40214000FF00520070B5124B1A683123D35C002B04D1C421FF310F4800F0ACFD0C4B1D682C00B423EB582A6A944663441B68002B0BDB094B1868FFF787FF6B6801229A6077
:4021800063689B68002BFBD100E0044870BDC046082300089C8A0010741700080200500010B50D4B1861002805D002230370FD33437000234380094B1B6850229A5C002A50
:4021C00008D051229B5C002B04D04F3A04490020FEF750FF10BDC04674170008082300086503000810B502481430FFF7D9FF10BD7417000870B504000D00FFF73FFF002848
:4022000036D0002D36D0FDF7E5FF1B4B1B4A1A6000225A609C60DD60194B1B6852329A5C002A1FD01A6884215B58D31819681A68120AFF2313405A1C0B0E01335343114CAA
:402240005C43114B1868FA21890001F069FD0100200001F065FD0D4BC1188020400006F03FFA08E000218020400006F039FA02E0074800E0064870BD7417000800010005FD
:4022800008230008C0EA2101C4000008482600000600520010B5FFF755FF10BD10B50400FFF7ECFE00283ED0FDF794FFE02252051E4B1A601E4B1B78002B05D01B4A136833
:4022C000802149000B431360184B5C6000229A60DA60184B1B6854329A5C002A1ED01A6884215B58D31819681A68120AFF2313405A1C0B0E013353430F4C5C430F4B1868BE
:40230000FA21890001F00CFD0100200001F008FD0B4BC118002006F0E3F905E00021002006F0DEF900E0074810BDC046741700080B0000160823000860F59000C40000083A
:40234000980800000600520070B504000D00FFF795FE002842D0002D42D0FDF73BFFC022D204204B1A60204B1B78002B05D01D4A1368802149000B4313601A4B802252007E
:402380005A609C60DD60194B1B68AD3A9A5C002A1FD01A6884215B58D31819681A68120AFF2313405A1C0B0E01335343104C5C43104B1868FA21890001F0B2FC0100200061
:4023C00001F0AEFCE1239B00C118002006F088F907E00021002006F083F902E0064800E0054870BD741700080B00001608230008808D5B00C40000080600520070B5050072
:402400000C0000285DD000295DD0FF230A689A4303D099212D4800F04DFCFF2322699A4303D09A21294800F045FCA3685B0D03D09B21264800F03EFC63685B0A03D09C2125
:40244000224800F037FCE3695B0F03D09D211F4800F030FC236A5B0F03D09E211B4800F029FC1B4A11688B69EB1ADB0949691B01CB18216829607D211068415C6918E0680A
:4024800008607E211068415C6918206908607F211068415C6918606908607C211068415C6918A06808606168A961116880228A5CAD18A2692A60E2691A60226A5A6000202B
:4024C00002E0044800E0034870BDC046DC8A00100823000801005A0010B5B0235B059B899BB2002B04D0B0235B059B899BB201E080235B0080225200934215D1184C2368C3
:402500001968683A9B58C9180B680F208343963A13430B6021680C689C23CB58E318196881430A431A6019E00D4C2368196898229B58C918B02040050A4BC2580A4B1340AD
:402540000A681343C022920013430B60226811689C23D358CB18054A82581A6010BDC0460823000848180000FFFCFFFF4418000030B5B0235B059B899BB2002B04D0B023D5
:402580005B059B899BB201E080235B0080225200934215D1184C23681968683A9B58C9180B680F208343953A13430B6021680C689C23CB58E318196881430A431A6019E0FF
:4025C0000D4D2B68196898229B58C918B0246405C12040012258094B13400A681343C022920013430B602A6811689C23D358CB1822581A6030BDC04608230008FFFCFFFF77
:40260000B0235B059B899BB2002B04D0B0235B059B899BB201E080235B008022520093420DD1104B1B681A6898215B58D21811680D4B0B40C021C9010B43136011E0094B4A
:402640001B68196898229B58C918084BB0225205D258074B13400A681343C022920013430B60704708230008FF8FFFFF18180000FFFCFFFF30B5B0235B059B899BB2002B2D
:4026800004D0B0235B059B899BB201E080235B008022520093420DD1134B1B681A6898215B58D2181168114B0B408021C9010B43136018E00C4D2B68196898229B58C91824
:4026C000B02464050A4822580A4B13400A681343C022920013430B602A6811689C23D358CB1822581A6030BD08230008FF8FFFFF4C180000FFFCFFFF10B5B0235B059B893B
:402700009BB2002B04D0B0235B059B899BB201E080235B0080225200934217D1002000F0B5FBB0235B055B78002B04D0B0235B055B78DBB200E02123222B03D8002803D179
:40274000013004E0012002E0002000E0012010BD10B50400012803D91049114800F0AAFA002C03D10F4B5869C00F00E000200E4B1A684423D35C002B0ED0012C0CD1094B7D
:402780009B695B0005D4074B9B69002B03DA012002E0012000E0002010BDC046620700005C8B0010000026400823000870B504000D00154B1A684423D35C002B22D0072899
:4027C00003D91249124800F075FA0F4B1A684423D35C002B04D00F4B9B690722134000E0002321009C420DD00A4882690726B243344014438461002D04D0994202D9C82011
:4028000000F04CFA70BDC04608230008CC0700005C8B00100000264030B5021E22D0C368002B21D00368002B20D00579A900104BCC582300002103E0934205D019005B69B4
:40284000002BF9D1012000E0002000280FD0002C03D1AD00064BEA5000E04A6111610023536104E0002002E0002000E0002030BD8C17000830B585B004000D00022807D95C
:40288000042805D0032803D02A492B4800F012FA6B1EDBB2012B07D9042D05D0082D03D02649254800F006FAA400254BE458042D13D0012D1CD112E0A3682B420BD1E3682B
:4028C0001A6802925B6801930393290002A8236898471B4B5C61646902E0002000E00020002C24D0174B9842E6D1012DE4D11EE0022D01D104E01C006369002BFBD104E00A
:402900000F4B5C69002C00D0246900200DE0A3682B4209D1E3681A6802925B6801930393290002A8236898472469002CEFD105B030BDC046B20900005C8B0010B309000076
:402940008C170008FF00420070B50500012804D9E02149001B4800F0ADF91B4B1B68002B05D001210020FFF785FF040000E00024002C20D100F065FA0600134B1B68002BCD
:4029800003D004210020FFF775FF104A136904218B431361012D01D030BF00E020BF300000F053FA084B1B68002B09D008210020FFF760FF04E002210020FFF75BFF044CFF
:4029C000200070BD5C8B00108C17000800ED00E0FF00420010B500F034FA074B5A6807490A40E824A40122435A605A68114059605B6800F02AFA10BD00002640FF00FC0F99
:402A0000F8B50700012803D93D493E4800F052F9B0235B055B78002B04D0B0235B055B78DBB200E021239DB2B0235B059B899BB2002B04D0B0235B059E89B6B201E080269F
:402A40007600002000F022FA002814D180235B009E4212D1222D12D82B4B1B685C682B4821582B4B19403B068022520413400B432350002404E0274C02E0264C00E0254CC8
:402A800080235B009E4201D1222D03D880235B009E4232D01C4B1A683123D35C002B04D1C421FF311C4800F005F9174B1B681D6A80235B009E4203D1002F05D0174A06E020
:402AC000002F03D0164A02E0164A00E0164A01212800FEF72FF800280FD10B4B1A68B423D3585B191B68002BF7DBEB681B0E1B06A0221206934200D100242000F8BDC0469A
:402B00004C0A00005C8B00100823000818F00000FFFFFFFE040042009C8A0010010100300300000C010000300100000C70B50400022805D0052803D02049214800F0BAF87B
:402B4000FFF7DAFD002836D000F07BF90600022C07D10120FFF754FF051E0FD1FFF7BCFC0CE018494B6907229343043A13434B61342000F093F8FFF77DFD0025002D16D117
:402B800010494B69072293431A000723234013434B61022C02D1FFF733FD08E0912000F07DF8FFF7E5FC0020FFF72AFF0500300000F04BF900E0044D280070BD020700002D
:402BC0005C8B00100000264003004200F8B50500012804D982210901294800F06BF8FFF78BFD002849D000F02CF90700002D11D10021244B244AD150E823DB00B0225205F2
:402C0000D65CF6B20120FFF7FBFE041E19D1FFF763FC16E0B02252051C4BD0581A4B194958501B49565CF6B21A481A581F218A4314390A431A50032000F030F8FFF71AFD41
:402C40000024002C15D11049124A8B581F20834306401E438E50002D02D1FFF7D1FC08E0072000F01BF8FFF783FC0020FFF7C8FE0400380000F0E9F800E0074C2000F8BDC1
:402C80005C8B0010307F00000000264010180000410700001CFF00000300420010B5034B1B78584300F0C4F810BDC046D400000801BEFEE770B50D00044C1822010020001B
:402CC00003F04DFAA5610020FFF7F2FF00080008024B1B685B6801229A60704708230008054B802212069A649B6C002B01DB002000E002487047C046000027400300460016
:402D0000054B8022120198585B68FF221A4202D08023DB021843704700002640FEE7C04610B50A4B0268DA6142681A6282685A62C2689A620269DA6242691A6382695A6381
:402D4000C2699A63FFF7EAFF10BDC04600080008F0B5474680B4002801D0192300E064238B429B415B42304D2C682268A826A45BA41822680327BA433B401A4322602C685E
:402D80002268A45BA2181668284CA046264016602C682668AA229446A25A96193268BA43134333602A6813686546525BD3181A68444614401C60002805D010291BD9212989
:402DC0001BD8012024E0184B1B6855229A5C914215D956229A5C914213D957229A5C914211D958229A5C91420FD959229B5C99420DD804200CE000200AE0022008E00020AD
:402E000006E0012004E0022002E0032000E00520054A1268526813680F218B430343136004BC9046F0BDC04608230008FFFCFFFF0230800803D001300238FCD1C046C04680
:402E40007047EFF3108072B6704780F310887047042805D10B4A116804230B4313600FE0094B1A681168A023D358CB180006C022920410401860034A136804218B4313604D
:402E80007047C04610E000E00823000810B50400094B1B689B6CC340DB0703D4BE210748FFF708FF044B1B681B691034A402E3580F20184010BDC046082300089C8B001085
:402EC000014B18607047C0460823000870B50D000F4B184300040F4BD861FA24A40003E0013C0120FFF7DAFE0A4B1B6CDB0701D4002CF5D1002C08D0064B196C01220A4300
:402F00001A64DB6A2B80002000E0034870BDC0460080FFFF00003C400400160010B500040E4B184001430E4BD961FA24A40003E0013C0120FFF7B2FE094B1B6CDB0701D405
:402F4000002CF5D1002C06D0054A116C01230B431364002000E0034810BDC0460000FF7F00003C4004001600F0B583B006000A24C02149017548FFF7D1FF002804D16B460E
:402F8000991D7248FFF7A2FF002C01D0013C00E06F48002805D16B46DA88C0235B019A42E6D1002825D16B46991D6A48FFF78EFF00281ED16B4606331B885B0519D40A247D
:402FC0008021C9006348FFF7A9FF002804D16B46991D6048FFF77AFF002C01D0013C00E05B48002805D16B46DA888023DB009A42E6D1002804D16B46991D5748FFF766FF66
:40300000002844D16B4606331B883F229343B278012A15D1F178012904D88FB20222D21B95B201E000250227402213439BB2302213436A46D380494BCB40494A136013E0D5
:40304000F178002904D18FB20122D21B95B201E00025012740229343102213436A46D380404BCB403E4A13606B469C1DD9883943D9803948FFF752FFF378DB1B032213408E
:40308000AA0092B213432380374A38498B50B0235B055B78002B04D0B0235B055B78DBB200E02123212B4FD0314BB0225205D35A9BB2002B48D0002804D16B46991D2D48EA
:4030C000FFF704FF002824D16B469A1DDB8860218B4318001380B0256D05254C2B5B60310B405B08034324490B401380295BC901F020C00001400B43204919401180285B64
:40310000C0239B000340DB00194311801948FFF705FF002804D16B46991D1948FFF7D6FE002811D16B469A1DD988C023994311800F4BB0204005C05A302303409B001943E3
:4031400011800F48FFF7EAFE03B0F0BD021E000004001600031E0000091E00000048E801C00000080024F40064F0010000003C4016180000071E00007FF5FFFFFFE7FFFF1C
:40318000061E000070B50C004000084901430848FFF7C4FE051E04D106490748FFF7BEFE05006001FFF77AFD280070BD01100000081E0000376800000F1E00000349044AD0
:4031C0008858102303438B507047C04600003C4070F00100F0B59DB013A9144B0A00180070C870C270C870C270C870C20AAD28001A002432D0CAD0C0D0CAD0C0D0CAD0C0C7
:4032000001AC22004833C1CBC1C2C1CBC1C2C1CBC1C20748FFF7F2F829000648FFF7EEF821000548FFF7EAF81DB0F0BD4C8D0010000132408001324000023240F8B5051E42
:4032400000D1DDE0734B5B689B0301D5FFF7C2FB714C03E0013C0120FFF720FD6F4B704AD358002B01D0002CF4D16E4B6C4AD358DB0704D56C4BD358DB0700D5C2E0674B39
:40328000674AD358002B00D0BEE0FFF7A3FF644B6649674A99502A78A02109030A4365495A506549654A9950802252009B58DB0700D5ABE0624B1B6F1B0709D4614B186824
:4032C000614B984206D9190000F02AFD013802E0012000E00020524B1B68002803D040035A4A104300E05A4818434D4B1860494B5B695B0017D501210320FFF757FA454B00
:403300005B699B0F01221340524A116844228A5C002A0ED0002B0CD03E4A93698021C9050B43936105E03E494B4A8858032303438B503B4C3B4AA658484B3343A350402076
:40334000FFF7ACFC464BE358DB070BD42700444C01233B514020FFF7A1FC03233B514020FFF79CFC3F4F37403F4E3E432D4B2C4AD650FA24E40003E0013C0120FFF78EFC3E
:403380003A4B3B4AD358DB0601D4002CF4D1002C01D0002400E0374C002C23D12049364A8858082303438B500120FFF7D1F9002801D1324E3E43324B1E4001231E43194BD8
:4033C000174AD650144E03E0013E0120FFF766FC154B134AD358DB0701D4002EF4D1002E00D1244C002C03D12800FFF7BDFD0400002C0CD168782978FFF7C4FE040006E040
:40340000204C04E0204C02E01F4C00E01F4C2000F8BDC04600002640F07E0E006CF0010000003C40A0F00100B4F0010006000001A4F00100A8F0010001000100ACF0010098
:4034400000F03D40C800000800093D00041A0080040A008008230008C4F0010030000300B0F00100EFFFFEFF2000020010400000000032400400160068F001002800020075
:40348000FFFFFBFF010016000300160002001600014B18687047C046C000000810B5002405E02000FDF722FF032804D00134042CF7D9002000E0012010BDC046A023DB00B2
:4034C000064AD35803221340012B03D0032B03D1012002E0012000E0002070470000264070B5012902D0082940D045E00320FDF773FC254B984241D0FFF7D0FF01283FD032
:40350000022006F023FC0500FFF79BFC1F4B186006F020FC0400062817D0022D0AD1022008F05CFA032C01D0052C10D1002810D0174C13E0012008F051FA022C0BD0002836
:403540000BD1FFF701FA124C08E0002406E0104C04E0002402E00E4C00E00D4C0C4B9C420FD10A4B1868FFF770FC0AE0074B1868FFF76BFC002404E0054C02E0044C00E085
:40358000034C200070BDC04601018800C4170008FF004200002803D0024B5860002000E001487047C41700080100160010B594B001AC4C220021200002F032F9D7231B0129
:4035C000A3811B2323836383183B2377013363770C33E3772022A3540132A35441323433E252613A0433E2540D48FFF715F906F093FB07A806F0DEFB00280ED1094B029385
:40360000094B5B685968002904D022222630684402F0FDF801A806F0A1FB14B010BDC046E00000083C080008C4170008014B024AD050704778F0010000003C4010B50FF087
:403640002FF910BD10B5024B1B68984710BDC046D417000810B5002809D0FA23FF33994207D80A00044902F0D2F8002002E0034800E0024810BDC0460708001601001600B3
:40368000F0B55F4656464D464446F0B4B14CA54481460E00904605930B00AF4A914204D942468A18AD498A4211D9AD4A934204D94246B218AB498A4209D9AB4A934200D871
:4036C00023E14346F318A94A934200D922E1A84B5B695B0010D5A64B5B6907241C40022C25D10520FFF722FA0190A24B9842F8D003940123049324E09F4B9D4AD3581F224D
:403700001A40E823DB00B0214905CB5C9B1A5A1E9341DBB20493002B0FD10120FFF756FA944B9842F9D001900523039309E00394012304930023019303E0052303930023E5
:4037400001938E4B019A9A4204D1D621FF318C48FFF7B0FAF0231B069C466644730A9A465C0200210320FDF7ABFA0028F9D100250023029399E0B4421BD3BD4219D24A46F7
:4037800052191078804606A84146C154594600290DD1802149058846A044414609786846017001781278914201D001229346013505E080225205A218127806A8C2540134A4
:4037C000013304E0002100238B46844647466D4A9342D0D959466046B846002962D0019B002B5FD1059B002B51D1C83300951D00B3465646A24680231B03F7187F023800DB
:40380000FEF74CFD0400013D0120FFF747FAA423DB0322001A409A4201D1002DEBD122000294009D5446B2465E46574B9A4205D1FEF730FD554B9842FAD00290029B002B59
:4038400019D1C83300971F00A34606A90098FEF77BFD0400013F0120FFF720FAA423DB0322001A409A4204D1002FEED102945C4601E002945C46444B029A9A4211D1FEF7AC
:4038800009FD424B9842FAD0029001200AE0802000035044400206A9FEF7ACFC0290012000E0012001239C46E244029B019A134301D1454586D3002801D0FFF709FA002139
:4038C0000320FDF743FA0028F9D1019B002B25D1274B5B695B0009D5039B022B06D10220FFF724F90190234B9842F8D0204B1B681B0213D4049B002B10D10020FFF766F9CC
:4039000001901C4B9842F8D008E000230193204B029303E0002301931D4B0293019B002B0CD11C4B029999420AD0194B994207D0002901D1002004E0174802E0174800E0C7
:40394000174887239B009D443CBC90469946A246AB46F0BDE4FDFFFFFFFFFF0F00001010FFFFFF1300800014FF070016000A001600002640040042001CFF00000300420098
:40398000B88D0010FF0100000100500002005000060052000200520013001600120016000100160010B500280AD0FA23FF33994208D8F93BFF3B0A000349FFF761FE02E02F
:4039C000024800E0014810BD07080016010016000020704710B50C000088AE235843044B9C4660440A2100F09BF9208010BDC04691FCFFFF10B50C000023C05E044B584331
:403A0000044900F017FABD23181A208010BDC0464B280000102700000020704710B5FFF73DF910BD064B1B681B6800229A5E002A05DB1F231A401E3B9340024A13607047BB
:403A4000C817000800E100E0094B1B681B6800229A5E002A0ADB1F231A401E3B9340802204498B50BFF34F8FBFF36F8F7047C046C817000800E100E0A023DB00024AD358CF
:403A8000032018407047C04600002640024B034AD058C00F7047C0461C0500000000264010B5FDF741FE10BD70B504000D0016000320FDF791F9054B984205D03200290087
:403AC0002000FDF763FD00E0014870BD0101880003004A0070B5431ADC171B196340934227D3164B164CE458A405A40D884208D9401A51084018110000F012F9201A0ED5D2
:403B00000AE0081A51084018110000F009F900190C4B984202D802E0002000E00A48084D06496B589B0A9B028205920D13436B5001E000240020201A70BDC0463C050000BA
:403B400000002640FE030000FF03000010B5034B1A6880210902FFF7BDFF10BDF800000810B5FFF737FB0220FFF760FD094C236818680949FCF75CFF23681B6800229A5E92
:403B8000002A05DB1F231A401E3B9340034A136010BDC046C81700083D36001000E100E00420704710B5FFF74CF910BD10B5FFF74CF910BD10B5FEF7C7FE10BD10B50021CE
:403BC000FEF7F4FD10BDC04610B50020FDF73CFB10BDC04610B50020FDF70EFB10BDC04610B5074B1960012201000020FDF742FA002803D100220349FDF73CFA10BDC04609
:403C0000D41700084536001070B50B001500020000210120FDF7D2F9041E03D029000020FDF752FA200070BD70B50D001600002907D1002408E02878FCF758FC013501344C
:403C400000E00024B442F6DB200070BD70B50D00160000290CD100240DE0FCF753FCC0B2287001340A2806D00D2804D0013500E00024B442F1DB200070BDC04610B50249DC
:403C80000248FEF77FF910BD0C2300080000664010B5114B1B78002B0BD1104A10491148FDF722FF10491148FCF7C2FE01220A4B1A700E4B00229A5E002A05DB1F231A4047
:403CC0001E3B93400A4A1360064A1368802109060B43136010BDC046D81700080C230008F48D0010000066407D3C00105087001000E100E010B5084B1B78002B06D10748F0
:403D0000FFF748FC0122044B1A7000E00020002801D1FFF74BFC10BDD9170008FC000008002243088B4274D303098B425FD3030A8B4244D3030B8B4228D3030C8B420DD33E
:403D4000FF22090212BA030C8B4202D31212090265D0030B8B4219D300E0090AC30B8B4201D3CB03C01A5241830B8B4201D38B03C01A5241430B8B4201D34B03C01A5241FE
:403D8000030B8B4201D30B03C01A5241C30A8B4201D3CB02C01A5241830A8B4201D38B02C01A5241430A8B4201D34B02C01A5241030A8B4201D30B02C01A5241CDD2C309CE
:403DC0008B4201D3CB01C01A524183098B4201D38B01C01A524143098B4201D34B01C01A524103098B4201D30B01C01A5241C3088B4201D3CB00C01A524183088B4201D327
:403E00008B00C01A524143088B4201D34B00C01A5241411A00D20146524110467047FFE701B5002000F0F0F802BDC0460029F7D076E7704703460B437FD4002243088B4251
:403E400074D303098B425FD3030A8B4244D3030B8B4228D3030C8B420DD3FF22090212BA030C8B4202D31212090265D0030B8B4219D300E0090AC30B8B4201D3CB03C01A8F
:403E80005241830B8B4201D38B03C01A5241430B8B4201D34B03C01A5241030B8B4201D30B03C01A5241C30A8B4201D3CB02C01A5241830A8B4201D38B02C01A5241430A54
:403EC0008B4201D34B02C01A5241030A8B4201D30B02C01A5241CDD2C3098B4201D3CB01C01A524183098B4201D38B01C01A524143098B4201D34B01C01A524103098B4255
:403F000001D30B01C01A5241C3088B4201D3CB00C01A524183088B4201D38B00C01A524143088B4201D34B00C01A5241411A00D201465241104670475DE0CA0F00D0494243
:403F4000031000D34042534000229C4603098B422DD3030A8B4212D3FC22890112BA030A8B420CD3890192118B4208D3890192118B4204D389013AD0921100E08909C30962
:403F80008B4201D3CB01C01A524183098B4201D38B01C01A524143098B4201D34B01C01A524103098B4201D30B01C01A5241C3088B4201D3CB00C01A524183088B4201D365
:403FC0008B00C01A5241D9D243088B4201D34B00C01A5241411A00D20146634652415B10104601D34042002B00D54942704763465B1000D3404201B5002000F005F802BD86
:404000000029F8D016E770477047C046002B11D1002A0FD1002900D1002802D00021C943081C07B4024802A14018029003BDC046D9FFFFFF03B4684601B5029800F050F8A7
:40404000019B9E4602B00CBC7047C046F0B54F464646C0B41604360C9946330005042C0C070C150C63437E436F4365431C0CAD1964199C46A64203D980235B029846474431
:404080006346250CEF191D044B464A4343432D0C240464199918C91920000CBC90469946F0BDC04670B500220C4B04000D0001F05DFA002804D12000290001F0B5F970BD8F
:4040C000064B00222000290000F05AFE01F0ACF980231B069C466044F1E7C0460000E041F0B54D46564644465F46F0B4924683B004000D0099468B422FD82CD04946504646
:4041000001F05CFA29000600200001F057FA331A9846203B9B4600D574E053465A4693401F005346424693401E00AF4229D826D05B46A41BBD41002B00DA79E000220023F1
:404140000092019301235A4693400193012342469340009319E08242D0D900220023009201930C9B002B01D01C605D600098019903B03CBC90469946A246AB46F0BDA34232
:40418000D6D900220023009201934346002BE8D0FB0772081A4346467B080EE0AB4201D1A2420CD8A41A9D41012024196D410021013E24184D41002E06D0AB42EED9013E53
:4041C00024196D41002EF8D15B460098019900196941002B22DB2B005A46D3402A004446E2401C005B461500002B2CDB26009E40330026004746BE403200801A9941009049
:404200000191AEE7424620239B1A5246DA40414613004A468A4017001F4382E7424620239B1A2A0046469A402300F3401343D5E74246202300219B1A0022009101920122CD
:40424000DA40019282E74246202326009B1ADE402F00B446974066463B003343C9E7C046F0B556464D4644465F46F0B41D000E034C00CB0F87B0070092468146360B640DC7
:4042800098466AD06D4B9C4235D08022430F12041343F6001E43C3009946694B00279C460023644402932B0368001B0BED0F51469B46400D009500D178E0604B98426CD0D9
:4042C0005B46DA004B0F802109040B4313439B465346D9005A4B9C46002360444246201A6A40924601901F430F2F00D9B0E05548BF00C0598746374300D088E00023994622
:404300000233082700260293CDE74346B34649460093029B009A9246022B00D0BFE1002153460122002689461A40444B002136030C0D2405360B2643434C1B0526401E43E3
:404340007600D207760816434846310007B03CBC90469946A246AB46F0BD330003434FD0002E00D1BCE1300001F00AF903000B3B1C2B00DDADE11D220100D31A08393A0073
:404380008F408E40DA40B9461643304B00279C46002360444442029385E753465A4613432CD1002300219B46023397E70B4320D05B46002B00D19EE1584601F0E1F80300F3
:4043C0000B3B1C2B00DD8FE102005946083A91408B461D21CB1A5146D9400B0059460B4351469B469140194B9C4660444042002374E7002300219B4601336FE703236DE737
:404400000023994601330427002602934BE703230C27029347E70122D51A382D00DCB0E153461A4000210023002689467EE700238026994600223603004B77E7FF070000EB
:4044400001FCFFFF34990010FFFF0F80F30300005E4500D972E100D16DE1019B4D46013B01930023340002935B461E020B0E1E430B020393330C994633041B0C49462000FF
:404480000093FFF74DFC009B370043430600494620009846FFF7CAFC2C0C09040C43A04509D9E419731EA74200D95CE1A04500D859E1023EE4194346E41A49462000FFF73B
:4044C0002FFC0300009A80465343494620009B46FFF7ACFC2A040904120C0A4393450DD94346D219013B974200D93AE1934500D837E102235B429C46D219E0445B46D21A81
:404500004346360433439B460399180C0B0C1D00059309045B46090C0C001B041B0C4443049159436B4368431B190D0CEB189C4203D980246402A44660441C0C09041B04B9
:40454000090C20185D18824200D2DEE000D1D7E0161A029B9C465D1BAC459B415B42F61AB74200D106E149463000FFF7D9FB009B04004343494630009846FFF757FC2E0C7D
:4045800009040E43B04509D9F619631EB74200D9F3E0B04500D8F0E0023CF6194346F31A494618000293FFF7BBFB009B06004343494602989846FFF739FC2D0409042D0C59
:4045C0000D43A84509D9ED19731EAF4200D9D6E0A84500D8D3E0023EED192404210043463143049E059A3000ED1A0B040C0C1B0C58436643534354439A19030C9B189E42F5
:4046000003D980225202944664441A0C00041B04000C14191B18A54250D34DD001231943964A019B94466344002B00DCF3E64A0709D00F220A40042A05D00A1D8A42894188
:4046400049428B4411005A46D20108D55A468C4B1A4093468022D2009446019B6344894A934200DD5BE65A46C908500708435602514601225B058146360B5B0D0A4055E604
:4046800080231B031E4211D05A461A420ED15E461E433603360B2A0089467B4B46E6032B00D1E1E0012BBBD11A40BBE61E433603360B4246744B39E6002BB1D07D194A1E55
:4046C000AF4252D91100A542A8D1039A9A42A5D1A6E703003E00283B9E400023994654E600F04EFF203041E603005246283B9A400021934677E6504600F042FF20305EE6B5
:40470000029B0026AB4200D323E7039E0299B44661448846B045B6415B467642F619B218013B0291974213D290424FD800D18EE0161A9B460DE7894500D28EE674084B463A
:40474000F60735005B081D434B46DB0702938BE69742EDD10399029CA142E5D93E1A9B46F7E69846CAE61E00A5E6AC423ED874D0110053E70121494252E71C000EE71E0064
:404780002BE71F2D3CDC20230A0058465B1B9840EA4099400243481E81415E461143EE404B0709D00F230B40042B05D00B00191D99429B415B42F61833023CD55346012263
:4047C00000211A40002601238946AFE502235B429C46039CE344A446029B63449846A045B6417642F6190293B218B1E603988A1E41008142B6417642F619AD19039161E7DB
:404800001F225242D31A5A46DA401300202D29D040225846551BA8400143481E814107200B4318400026002809D00F2200261A401900042ABBD10B0070077602360BDB0849
:4048400003439946012253461A4000236EE502998D42BBD89B4600267BE603989842C5D3110032E70020D7E780265B4636031E433603360B009A8946034B57E5FF030000BD
:40488000FFFFFFFEFE070000FF070000F0B55F4656464D464446F0B40D0399464E002B0B87B00700924680469B46760DCC0F002E69D06D4B9E4235D05B468022DD00120483
:4048C000430F13432B439B46C3009846674B00279C460023664401934A4615035000D20F53462D0B400D914600D176E05E4A90426CD080225B0F120413435C4AED00944674
:404900001D4353460022DB00604449463618701C6140029017430F2F00D9AFE05448BF00C759BF465B461F4300D088E000239B469846023308270193CEE74946022A6AD002
:40494000032A00D109E2012A00D0BBE111400022002300259046CCB200212D030A0D12052D0B1543434A1B0515401D436D00E4076D0825434046290007B03CBC90469946EF
:40498000A246AB46F0BD034352D05B46002B00D18AE1584600F0F4FD03000B3B1C2B00DD7BE11D22D31A3A0001005D46DA4008398D4013008F402B439B46B8462E4B0027B8
:4049C0009C46002360444642019385E752462A432CD100250023022297E752462A4321D0002D00D154E1280000F0CAFD03000B3B1C2B00DD46E11D21CB1A51460200D94029
:404A00005346083A954093400D431B4A944660444042002279E7012400220C40124B0025904699E70025002301226EE703226CE700239B4698460133042701934CE70323EB
:404A40000C27019348E700238025984600242D03054B81E75D464346019A6FE75D4643462100019A6AE7C046FF07000001FCFFFF74990010FFFF0F80F30300004246120CEB
:404A800091461A0C9446424617044A461B041B0C5A43604690464A4642431000039262461C003F0C7A437C4342440192220C9246019A5244904506D98246802040028046D4
:404AC000C24450460390100C049048462404240C1204121905922A0C2D042D0C68432C00824648467C4350438146200C8046574357444744BA4503D9802040028046C144F9
:404B0000380C3F04B84648442404240C01900498A044404404905846000C814658460404200C8246070048465F434C464343604660436446834650464443380C8446E418A6
:404B40006444A34203D980235B029C46E34448463F04230C3F0C2404E419574668436F4384464D46504655434243380C814662444A445B44944503D9802040028446654461
:404B800003983F04834604983F0C8446E344C345804140428246100484460198674484466744A344BC46A345A4419946D44464428742BF41D4458041E144A04699459B4111
:404BC0007F424042C8440743120CBA18A045A4415F423B0064422343D71843467D19DB0D6D021D435B465A02059B1A43531E9A415B46DB0D1A4343465B021343EA0107D586
:404C000001225C0813402343EA07029E13436D08574AB218002A4BDD580709D00F201840042805D0181D98429B415B42ED180300E80104D54F4A15408022D200B2184E4847
:404C4000824200DDE7E60124DB08680718436D02530580462D0B5B0D0C407DE6802259461203114208D0154206D115432D0398462D0B4C46414B6FE65D4615432D032D0BF5
:404C80003E4B69E603005546283B9D400023BCE6504600F075FC2030A8E60300283B9F400023BB46984689E600F06AFC203073E60124A61A382E07DD00220C40002300250A
:404CC000904649E6029EA3E71F2E20DC20222C001800921BF040944093400443581E83411C43F540630709D00F232340042B05D023001C1D9C4292415242AD182B021FD5BA
:404D0000012400220C4001230025904624E61F202C004042821AD440202E1CD04022961BB5402B43581E83410720234318400025002809D00F2200251A401C00042AD8D182
:404D4000230068076D022D0B0124DB08034398460C40002300E60025E3E780220124120315432D0398462D0B0C40044BF4E5C046FF030000FFFFFFFEFE070000FF0700008E
:404D8000F0B557464E464546E0B40E001100F20F9246C500420F180337037400400A4E0F7F0A3043CF4E17435A00640D520DDB0FC900B24200D1E5E001267340A61AB44612
:404DC000534500D1AFE0002E00DC0DE1002A3AD103000B4300D0E4E06B0709D00F232B40042B05D02B1DAB42AD416D427F191D003B0200D488E0BB4B01349C4200D110E1E2
:404E00003A00B94B51461A4001235007ED08520264050543120B640D0B400021280012030D0D120B64052D0515436208AF4CDB072C401443640064081C4321001CBC904665
:404E40009946A246F0BDA74B9C42C5D080231B0418436346382B00DDFDE01F2B00DD30E1624620239B1A02009A40664690460A009940F24046464B1E9941324311436346EA
:404E80000200DA40691A8D429B410D00BA1A5B42D71A3B0235D57A02530A98464346002B00D1C4E0404600F06BFB0300083B1F2B00DDC5E020222900D21A4746D1409F4050
:404EC0000A009D403A439C4200DDC0E01C1B631C1F2B00DDE4E0202114002800C91AD8408C408D400443DA40681E854117002543002471E7424663461A4300D14CE267465F
:404F000045466B0700D069E7012351467807ED08FA080B40054373498C4238D012036405120B640D79E7002E00DC9AE0002A47D06C4A944200D14FE7802212041043624687
:404F4000382A00DC08E10143481E81410022C9B24919D219A942BF410D007F42BF183A0200D442E15F4A0134944200D14EE101205D4A69083A4028400843D5070543570854
:404F80009A4629E706000E4300D017E714E72900114300D1F9E1802109030A431203120B3BE701235B429846C4446346002B72D1691A8D429B413F1A5B42FF1A0D0068E714
:404FC00002000A4300D107E7012252429046C4446246002A00D0E6E06918A942B6413F187642F7190D00BAE7002E00D080E0621C5205520D012A00DCF9E06A1A91464D4517
:40500000B6413A1A7642921B9046120200D499E04D1BA9428941C71B49427A1A90469A463CE752460123002513400022F5E6280000F0A6FA20300300083B1F2B00DC39E7CD
:405040002A002838824000259C4200DC3EE7264FE41A1740C0E60143481E81410022C9B210E7002E00D0F1E0621C94465205520D012A00DCA0E01B4A944500D1C5E06918D7
:40508000A94292413F185242D2194908D5070D4357086446A0E6134B9C4200D0D9E69BE611001F3CE1400C00202B00D180E04021CB1A9A4015436A1E954100272543002466
:4050C0001FE763460200203BDA406346202B71D0402366469B1B98400143481E814111430022CFE6FF070000FFFF7FFFFFFF0F80002C48D0CA4CA24200D1A2E07442A146E4
:405100008024240427434C46382C00DDDBE01F2C00DD44E14E462024A41B3E00A640A246B0464C462E00E640B4464646644626435446A5406C1EA54134002C434D46EF40F2
:405140000D1B28E04A4643464D461A4300D0A5E6002300240025DEE61F2A5ADC66462022921B060096409146B04662460E00D640424616434A4691404A1E914102006046B8
:405180003143C240E4E63C002C435AD0F443A146002C52D14D1BA9428941C71B49427F1A14009A4675E69E4A944200D0C7E613E600227FE700208FE7002C00D0C8E03B00CA
:4051C0002B4300D10FE103000B4300D104E66918A9429B413F185B42DF193B0200D41AE1904B0D001F406446F6E59A4689E63A002A43002C5CD1002A75D102000A4300D189
:40520000CAE007000D009A46E6E564460022002581E662460600203AD6406246B046202A00D1B7E040226646921B904001434246481E8141114300228AE6794CA24200D061
:4052400061E707000D0014009A46C5E5002C41D13C002C4378D0F443A146002C20D0704CA24271D04C46382C00DDB2E01F2C00DDBCE02026341BA2463C005646B4404E46E2
:40528000A0462C00F440A446444666463443A4465446A54064466E1EB54125434C46E7406D188D4289413F184942CF19140056E6002A2FD102000A4300D184E007000D0061
:4052C0009A46574C88E53D436F1EBD41ECB200270D1B60E7524CA24236D0744280263604A1463743BEE702000A4300D174E56A1A90464545B6413A1A7642921B9446120260
:4053000000D4F7E54D1BA9428941C71B49427F1A9A4661E502000A433AD0ED087C072C438025FA082D032A4208D0C7082F4205D145072C003A009A46C9080C43670FD20009
:40534000E5001743364C47E507000D00140043E53A002A4343D002000A4319D0ED087C072C438025FA082D032A4207D0C6082E4204D147073C003200C9080C43D700620FC6
:40538000E50017439A46264C26E50022002544E5234C21E5002049E700230025BBE54C463E00203CE6404C46B446202C31D040244E46A61BB7403D436C1EA54164462C4350
:4053C00000270D1BE7E6802200231203144C0025A1E53D436F1EBD410027EDB260E707000D000F4CF8E407000D00F5E44E463C00203EF440A0464C46202C0ED040244E4660
:40540000A41BA7403D436F1EBD4144460027254346E70027CFE70D0073E50027F2E7C046FF070000FFFF7FFF0B0330B5134D1A0B4B005B0DC90F0024AB4211DD104CA34268
:4054400010DC8024640322430E4CE41A1F2C0CDD0D48C31ADA4013005C42002900D11C00200030BD094BCC18FAE7E040084CA44663449A4013000343EEE7C046FE030000F7
:405480001D0400003304000013040000FFFFFF7FEDFBFFFF70B5051E28D000F071F8154B154A1B1AD21A1F2A16DD2C00134A0025D21A94405A052403240B520D002124039C
:4054C0000B0D240B1B0523430D4C1205234013435B002800590870BD0B212C00081AC440954024035A05240B520DE7E700220024E4E7C0461E0400003304000013040000E9
:40550000FFFF0F808446101C62468C46191C634600E0C0461FB500F001F9002801D40021C8421FBD10B500F055F84042013010BD10B500F0F3F8002801DB002010BD0120B4
:4055400010BDC04610B500F0E9F8002801DD002010BD012010BDC04610B500F07BF8002801DC002010BD012010BDC04610B500F071F8002801DA002010BD012010BDC046CB
:405580001C2101231B04984201D3000C10391B0A984201D3000A08391B09984201D30009043902A2105C40187047C0460403020201010101000000000000000010B5002910
:4055C00003D1FFF7DDFF203002E0081CFFF7D8FF10BDC046F0B55F4656464D464446F0B41F035C00DB0F9A46194B0E034D00C90F8046360B6D0D8B4691463F0B640D9D42C3
:4056000019D0134B9C421BD00123A54206D018003CBC90469946A246AB46F0BDBE42F6D1C845F4D1D34510D0002DF0D1304303005A1E9341EBE7310001230143E7D1E0E703
:405640003A430123002AE2D1DEE70023DFE7C046FF070000F0B55F46444656464D46F0B41F033C0B2C4F0E034D00A3465C008446360B6D0DC90F9046640DDB0FBD422BD03C
:40568000254FBC422ED0002D0ED130430700814678427841002C17D15F463A4314D14B460020002B0AD006E0002C02D15846024301D099421AD00123484218433CBC9046B4
:4056C0009946A246AB46F0BD0028F2D058425841012240421043F1E737000743D0D002204042EBE75F461743CDD0F8E7A542E2DC05DB5E45DFD808D000205E45DED2484292
:405700004841012340421843D8E7C445D3D80020C445F4D3D2E7C046FF070000F0B55F464D4644465646F0B41C03240BA4462F4C0F034D005E00C90F80463F0B6D0D8B466D
:405740009146760DDB0FA54220D0284CA64222D0002D12D1384344424441002E20D0002C0DD05C42634101245B421C4320003CBC90469946A246AB46F0BD002E17D05B4598
:4057800019D05B465C4201231C43EFE7390002240143EBD1D9E7614602241143E6D1D7E761460A43DBD100240028DFD0E9E761460A43E4D1E5E7B54203DD01225C421443E4
:4057C000D4E7B542CDDB6745DBD809D000246745CCD259464C426141012449420C43C5E7C845CED80024C845F3D3BFE7FF07000030B50024A24208D0035D651C0C5DA342E5
:4058000001D0181B02E02C00F4E7002030BD002310B59A4203D0CC5CC4540133F9E710BD03008218934202D019700133FAE77047F0B58BB014001D1E129906DA8024240695
:405840001B191D0014002D2300E000230B702023149E03229E43462E07D03300453B59424B411099013ACB18109309AB049308AB0393139B00920293109B220001932B0076
:4058800000F006FD0700472E02D1119BDB072DD5109BFB180793462E14D13B78302B0CD10022002320002900FFF73CFE002804D10123109A9B1A139A1360139B079A1B684A
:4058C000D31807930022002320002900FFF72AFE3022002802D0079B099307E0099B0799994203D9591C09911A70F7E73800099B159ADB1B13600BB0F0BDF7B52B23070037
:405900000C000270861C002901DA2D234C427B70092C1CDD6B46DD1D20000A21FEF770FB013D3031297020000A21FEF783FA04000928F1DC013D30342C706B4607333000A6
:40594000AB4209D92B78013533700136F5E73023E4183370B01C7470C01BFEBDF0B595B00C000A920B931A9D099001F02DFB036818000D9300F0ECFB0023129323680E900D
:405980000C930C99277E2B680722C90501D59B1800E0073393431A0008322A601A685B68A264E3640122E56CA66C6B005B080F935242C04B30000F9902F0F4FD002819D129
:4059C0000122BC4B524230000F99FFF7BBFD002810D10022002330002900FFF7A9FD002803D023002D2243331A70B34D472F0ED8B24D0CE032002B003000290002F0D2FDF5
:405A0000002800D19AE1AE4D472F00D8AD4D03230C9A236101339A432260002642E0672F00D193E1472F00D190E10C9A0021134312AA059211AA039223222360069101933E
:405A400008A9636852180292009332002B0004970998FFF7EDFE20233A0005009A43472A00D18EE11199652F00D996E1200001393A0050301191FFF740FF129A06008318C9
:405A80002361012A00DD85E12268D20700D581E1232308AA9B181B78002B03D023002D2243331A700B9B13AA009321000A9B099800F0A4F9431C02D1012040429BE12268E7
:405AC000530501D4236964E0652F00D8CCE0A06CE16C00220023FFF725FD00282CD00123794A0A9909980B9DA847431CE4D0119B129A934208DB2368DB0705D423680025DC
:405B00009B0700D50FE113E10B9D0E9B0D9A0A990998A8470025431CCED0129B013B9D42ECDA220001231A320A9909980B9EB047431CC1D00135F0E7119B002B2BDC0123BA
:405B4000614A0A9909980B9EB047431CB4D0119B002B05D1129B002B02D12368DB07CDD50B9E0E9B0D9A0A990998B0470026431CA2D0119B5B429E420ADA220001231A3282
:405B80000A9909980B9FB847431C95D00136F0E7129B2A00ACE0A36D129E9E4200DD1E00002E05DC00230C93F343DB170F9315E033002A000A9909980B9FB847431CF1D12D
:405BC0007AE7220001231A320A9909980B9FB847431C00D170E70C9B01330C930F9BA26D0C993340D31A9942EBDBAE18119B129A93420DDB2368DB070AD4129B119AED18E2
:405C0000AD1B9B1A9D4200DD1D00002D09DC11E00E9B0D9A0A9909980B9FB847431CECD14AE72B0032000A9909980B9EB047431C00D141E7EF43FB1700260C930AE02200D3
:405C400001231A320A9909980B9FB847431C00D132E70136119A129B0C999B1A2A000A409B1A9E42EBDB49E7129B012B02DC01231A4245D001232A000A9909980B9FB8470F
:405C8000431C00D118E70E9B0D9A0A9909980B9FB847431C00D10FE7A06CE16C00220023FFF740FC002801D000251AE0129B6A1C013B26E0FFFFEF7FC0990010BC990010BB
:405CC000C8990010C4990010CC990010220001231A320A9909980B9FB847431C00D1EBE60135129B013B9D42F0DB2200330050320A9909980B9DA847431C00D0FEE6DBE682
:405D00002A000A9909980B9DA847431CEDD1D3E62200012319320A9909980B9EB047431C00D1C9E60135E368139A9B1A9D42EFDB139BE06898425EDA18005CE080236268DF
:405D4000DB00511C00D06AE6073202E0002A02D10122626069E60C9908A80B430021069112A9059111A90391232109182360019300922B000497029132000998FFF758FDF0
:405D80000500119BDA1C02DB626893421CDD023FFFB267E6013323617AE6662F15D16368002909DD2161002B02D12268D2071ED50133591821611AE0002B03D10122216879
:405DC000114213D09A1C11E06727119B129A934206DB22682361D20709D50133236106E00121002B01DC4918C91A8A182261119B0026A3654CE615B0F0BDC046F7B51700ED
:405E000001938A680B6900900C00934200DA130022003B6043321278002A01D001333B6023689B0602D53B6802333B60062523681D401ED0230043331B785A1E934122680B
:405E400092061CD53020E1184331087021005A1C45310978A2184332023311700FE022000123193201990098089EB047431C0ED00135E3683A689B1A9D42F0DBDAE7220000
:405E8000019943320098089DA847431C02D10120404220E006232068E1683A6803400025042B03D18D1AEB43DB171D40A3682269934201DD9B1AED180027BD420AD0220082
:405EC00001231A3201990098089EB047431CDED00137F2E70020FEBDF0B58BB006920A0043320793059004920A7E0C00109B6E2A00D1ABE011D8632A22D009D8002A00D137
:405F0000B5E0582A00D0C5E045310A70814A4FE0642A1DD0692A1BD0BCE0732A00D1AAE009D86F2A29D0702A00D0B3E0202209680A43226037E0752A1FD0782A33D0A9E099
:405F40000E001A684236111D196013683370A4E021681A68080606D4490604D5111D19600023D55E02E0111D19601568002D3BDA2D23049A6D42137036E021681A68080621
:405F800006D4490604D51568111D1960ADB202E0111D196015685F4B227E039308276F2A1DD00A271BE022007821453211705A4A19680392081D226818600D68100602D4A0
:405FC000500600D5ADB2D30702D520231A4322601027002D03D1202322689A4322602300002243331A7002E00A274A4B03936368A360002B09DB0422216891432160002D4F
:4060000005D1049E002B11D07BE0002D79D0049E28003900FDF70AFF039B013E5B5C280033703900FDF77CFE051EF1D1082F09D12368DB0706D563682269934202DC30236B
:40604000013E3370049B9B1B23612BE009681A68080607D4490605D5111D19601368A28A1A8004E0111D1960136862691A600023049E236116E01A68111D1960166800211B
:406080006268300000F0AEFF002801D0801B6060636803E0260042363270012323610023049A1370079B09AA00932100069B0598FFF7A4FE431C02D10120404227E02369D4
:4060C000320006990598079DA847431CF4D0236800259B070FD4099BE068984217DA180015E022000123193206990598079EB047431CE1D00135E368099A9B1A9D42F0DB87
:40610000E9E72600039B42361B7833708EE70BB0F0BDC046CE990010DF9900100FB40B4B13B51C68002C05D0A369002B02D1200000F0B6FE05AB049AA1682000019301F00B
:4061400029FB16BC08BC04B01847C046A80200080023C25C0133002AFBD1581E7047030030B5002A0DD00C7801335D1E013A2C700131002CF5D19A189A4202D01C700133C5
:40618000FAE730BDF0B503690C6989B00700059100269C4279DC0B00013C1433A50003935B1904930300143302935D19049B28681B68591C0193FDF7B3FD0190B04233D04D
:4061C000039B02989C460696634604CB9C46019B91B25943120C5A4389190B0CD3180793069A1E0C038889B29B1802685B1A110C6A46928B8A1A1914521811149BB212044C
:40620000134308C0049B06916345DDD22B68002B0AD1029B043DAB4201D33C6104E02B68002BFAD1013CF4E70599380001F0F6F8002829DB0020019B02990133039A0193BC
:4062400040CA0B881818B3B2C31A0868360C000C801B1D14451928149BB22D042B4308C1049B9342ECD2029AA300D3181A68002A0AD1029A043B9A4201D33C6104E01A68C5
:40628000002AFAD1013CF4E7019E300009B0F0BDF0B516001F00446A9DB00490259D06960797002C08D1102000F092FE049B5862446084600460C460049B5B6A196800290B
:4062C0000BD05A68012393404A608B60049800F0CCFE0022049B5B6A1A60079B002B05DA01232B607B005B08079301E000232B60079CC84B220019931A409A4219D1C64B08
:40630000249A1360069AC54B002A02D1240300D1C34B269A1800002A01D100F07DFDD978DA1C002900D00532269918000A6000F073FD069E079F0022002330003900FFF735
:40634000F1F8051E0ED00123249A1360B54B269A1800002A01D100F05FFDB34A26990A6000F05AFD1AAB01931BAB009332003B00049801F0D9F8630005905B0D09D03A035E
:40638000AA4C120B1443AA4A300021009E1817951AE01A9B1B9A9E18A64BF318202B08DDA54A0698B218D0404022D31A9C40204303E020220698D31A9840FFF76BF801238C
:4063C0009E4C013E0919179300229D4BFEF7D8FC9C4A9D4BFEF75AFA9C4A9D4B01F0B6FD040030000D0002F0FDF89A4A9A4BFEF74DFA02000B002000290001F0A7FD040030
:406400000D00FFF711F800220390002320002900FFF78EF800280DD0039802F0E3F802000B0020002900FFF77DF843424341039AD31A039301231693039B162B11D88749F7
:40644000DB00C91808684968069A079BFFF784F8002805D0039B013B03930023169300E016901A9B9E1B00230B93013E0C9604D50C9B5B420B9300230C93039B002B08DB93
:40648000039A0C9B944663440C9300231192089307E00B9B039A9B1A0B935342089300231193229B0125092B25D8052B02DD0025043B2293229B981E032824D801F03CFDA3
:4064C000060E0204012302E0012308E000231093239B002B20DD1F000A9321E00023239A1093039B9F187B1C0A930123FA18002A16DD130014E0012700237F42229310953B
:406500000A97123305E0012701237F4210930A9711330022239203E001273B000A972397049A546A00226260043211001431994204D86168520001316160F6E761680498B0
:4065400000F05BFD049B20605B6A1B680D930A9B0E2B00D981E1002D00D17EE1069B079C14931594039B002B31DD0F223B491340DB00CB185C681B680E930F94039B0224D6
:406580001D11EB060AD514981599354B15401A6A5B6AFDF765FE069007910134304E002D0ED001231D4208D00E980F99E41832687368FEF76BF90E900F916D100836EEE7E1
:4065C0000E9A0F9B06980799FDF74AFE4CE0039B02245D42002D49D0149815990F231F4A2B40DB00D3181A685B68FEF74FF90023069007911A4E2D11002D33D001221542B1
:4066000005D0A41832687368FEF740F901236D100836F1E70000F07F0F270000F9990010F0990010CC990010CD9900100000F03F01FCFFFF3204000012040000000010FE20
:406640000000F83F61436F63A787D23FB3C8608B288AC63FFB799F501344D33F689A0010409B0010002B01D006900791169B002B1DD0069D079E0022C74B28003100FEF78B
:4066800057FF002813D00A9B002B10D0002F00DCDFE0039B3100013B0E930022BF4B2800FEF7F4F80134069007913E0002E0039B0A9E0E93200001F095FF069A079BFEF7D8
:4066C000E5F80022B64B01F041FCB64A12901391129C139D9446139B634418931D00002E1CD1069807990022AF4BFEF749FB2200189B06900791FEF72FFF002800D054E2CF
:40670000AA481399844661440B00069807992200FEF70EFF002800D03DE29AE0109A731EA349DB00002A49D0CB181A685B680020A049FDF795FD2B002200FEF721FB129052
:4067400013910D9D06980799FEF76EFE040001F049FF02000B0006980799FEF711FB01356B1E30341C70129A139B06900791FEF7DFFE002800D02EE3069A079B0020864960
:40678000FEF7FEFA129A139BFEF7D2FE002800D0C7E00D9BEB1AB3425BDA1298139900227E4BFEF773F8002212901391069807997A4BFEF76BF806900791C3E7C918220018
:4067C000086849682B00FEF761F80D9C12901391A51906980799FEF727FE060001F002FF02000B0006980799FEF7CAFA303626700134069007910022A54222D16D4B129841
:40680000139901F0A3FB02000B0006980799FEF7A3FE002800D084E0129A139B00206549FEF7AEFA02000B0006980799FEF780FE00280ED06B1E1A78302A00D0CBE21D0048
:40684000F8E706980799554BFEF720F806900791BFE7149B159C069307941B9B002B00DA81E0039A0E2A00DD7DE0D300504AD3185C681B6808930994239B002B15DA0A9B67
:40688000002B12DC00D088E1089809990022464BFDF7FCFF069A079BFEF768FE0A9B08931E00002800D07BE182E10D9D069E079F089A099B30003900FDF7D2FCFEF7B4FDE5
:4068C000040001F08FFE089A099BFDF7DFFF02000B0030003900FEF753FA220001356B1E30321A700D9B0A9AEB1A9A422ED102000B0001F02BFB06000F0002000B00089867
:406900000999FEF715FE00280FD10898099932003B00FEF707FE002800D15EE2E30704D45BE20E9B039300E01D006B1E1A78392A08D10D9A9A42F7D1039A0D9901320392DB
:4069400030220A701A7801321A7046E20022134BFDF79CFF0022002306000F00FEF7E2FD0028A5D039E2109A002A44D0229A012A0BDC179A002A02D00F4A9B1802E0362335
:406980001A9A9B1A089D0B9C29E00A9B5D1E089BAB4213DB5D1B18E00000F03F0000244000001C400000C0FC000014400000C07C689A00100000E03F33040000089B089528
:4069C000EA1A0025119B9B1811930A9B002B04DA0B9B0A9A9C1A002301E00B9C0A9B0B9A0121D2180B920C9A0498D3180C9300F0DCFB060002E0089D0B9C109E002C0ED0A0
:406A00000C9B002B0BDD0C9A2300944200DD13000B9AE41AD21A0B920C9AD31A0C93089B002B20DD109B002B17D0002D11D031002A00049800F04CFC059A010006000498A8
:406A400000F0BCFB05990E90049800F00EFB0E9B0593089B5A1B06D000E0089A0599049800F036FC05900121049800F09EFB119B0890002B00D1C0E11A000100049800F02D
:406A800027FC229B0890012B17DC0025069BAB420ED1079B1B03AB420AD1199B079A134206D00B9B013501330B930C9B01330C93119B0120002B0DD000E00025089B089A5E
:406AC0001B690E9303339B00D318586800F023FB2023181A0C9BC0181F23184009D001331B1A042B02DD1C23181A03E0042B08D018001C300B9B24181B180B930C9B1B18BD
:406B00000C930B9B002B05DD1A000599049800F033FC05900C9B002B05DD1A000899049800F02AFC0890169B002B1DD00899059800F074FC002817DA039B0A22013B039326
:406B400005990023049800F0A9FA109B0590002B00D159E1310000230A22049800F09EFA0600002F37DC33E00A9B0A9F002B2ADC229B022B27DD002F12D108993B0005222E
:406B8000049800F08BFA08900100059800F046FC00280DDC04E0089602E000231E000893239B0D9DDB4303930AE00E9B089603930D9B0D9A5D1C31231370039B0133039321
:406BC0000A960026F3E0109B002B04D10D9DB5E0229B022BCFDC002C05DD31002200049800F0CAFB06000A96002D12D07168049800F003FA3100040033690C319A1C92005E
:406C00000C30FEF704FE01222100049800F0B4FB0A900D9B7D1E0B935B190E9308990598FFF7B0FA310010900400059800F0F6FB0A9A05000899049800F00BFC01230C9341
:406C4000C36830340700002B04D10100059800F0E5FB0C903900049800F007FA0C9B229A134308D1069A0133134204D1392C2AD0002D1CDC1DE0002D06DB229B1D431BD186
:406C80000123069A134217D10C9B002B11DD05990122049800F070FB0899059000F0BEFB002802DC05D1E30703D5392C0BD0109C31340B9B5D1C0FE00B9B5F1C0C9B002B8C
:406CC0000CDD392C05D10B9B0B9A5D1C3923137057E03D000B9B01341C7068E00B9B0E9A3D001C7093423CD000230A220599049800F0D4F90A9B05909E4208D13100002325
:406D00000A22049800F0CAF906000A900DE0310000230A22049800F0C1F9002306000A220A99049800F0BAF90A900B9776E700230A220599049800F0B1F9059008990598BF
:406D4000FFF720FA0D9B3030287001350400EB1ABB42ECDB3D1E00DC01250A9600260D9B5D1905990122049800F006FB0899059000F054FB002804DC13D1E30701D410E0C1
:406D80001D006B1E1A78392A08D10D9A9A42F7D1039B013303933123137008E001321A7005E06B1E1A78302A01D11D00F9E70899049800F05AF90A9B002B0ED0002E05D0D6
:406DC0009E4203D03100049800F04FF90A99049800F04BF901E00E9B03930498059900F044F900232B70039B249A01331360269B0D98002B10D01D600EE0229B012B00DC7F
:406E000043E6119D012065E6002F00DDDEE6229B022B00DCDAE6AEE61DB0F0BD10B5024900F0B0F810BDC0467D7D0010002310B5040003604360836081814366C2810361FF
:406E400043618361190008225C30FEF7E9FC054B24626362044BA362044BE362044B236310BDC046F1790010197A0010517A00107D7A001070B568254B1E5D430E002900C5
:406E8000743100F0FFFB041E08D000212A00016046600C30A0606832FEF7C2FC200070BD836913B50400002B28D18364C3640365134B144A1B6882620193984201D1012348
:406EC0008361200000F020F86060200000F01CF8A060200000F018F80022E06004216068FFF7A4FF01220921A068FFF79FFF02221221E068FFF79AFF0123A36113BDC04685
:406F0000B89900101D6E0010F8B51D4B06001D68AB69002B02D12800FFF7C2FF4835AC686B68013B05D40C22A75E002F10D06834F7E72B68002B01D02D68F0E7042130003F
:406F4000FFF798FF28600028F6D10C23336016E0012320005B42E3810233A38167662760A760676027616761A7615C3008223900FEF756FC20006763A763A764E764F8BD08
:406F8000B8990010F7B504000700002601914834002C16D06368A5680093009B013B00930DD4AB89012B08D90E22AB5E013304D029003800019B984706436835EDE7246819
:406FC000E6E73000FEBD000000487047AC02000810B5034B0100186800F054FB10BDC046A8020008C9B28218904204D003788B4202D00130F8E70020704770B5466A040037
:407000000D00002E07D11020FFF7E2FF6062466086600660C660666AF368002B09D0636AAA00DB689B18186800280ED002681A6017E021220421200000F0CAFA636AF06006
:40704000DB68002BEBD100200EE001210E00AE40721D9200200000F0BBFA0028F3D04560866000230361C36070BD70B5456A06000C00002D07D11020FFF7AAFF7062456056
:4070800085600560C560002C07D0726A6368D2689B00D3181A6822601C6070BDF7B5070008000C000D691E00002101921430019A0388013153439B190668360C56431A0CE6
:4070C0009446B4446246160C120494469BB2634408C08D42EBDC002E1BD0A3689D4212DB63683800591CFFF788FF2100236901909A1C92000C310C30FEF789FB21003800FC
:40710000FFF7B3FF019C2B1D9B00E31801355E6025612000FEBD00220300010C914201D103041032190E01D108321B02190F01D104321B01990F01D102329B001000002B97
:4071400003DB20205B0000D5501C70470722036810B501001A400CD001240020234223D10222134203D0E34020000B601CE09B0818E098B2002801D110221B0CD8B2002890
:4071800001D108321B0A180701D104321B09980701D102329B08D80704D45B082020002B02D0013210000B6010BD10B50C000121FFF723FF01234461036110BDF0B50B691B
:4071C0001400126989B00D00934201DA25000C002F692669AA68BB1969680193934200DD0131FFF70AFF0200BB1914329B00D3189C46002113000290634501D202C3FBE718
:407200001435BF00EB191434B6000593A31903950793079B9C4251D2208800281ED015000026039F08CF069504936B461B8A434319002B88CB1804999B19090C41432E686C
